{
	"firstcoin.sol": {
		"Game": {
			"abi": [
				{
					"inputs": [
						{
							"internalType": "string",
							"name": "fullName",
							"type": "string"
						},
						{
							"internalType": "uint256",
							"name": "age",
							"type": "uint256"
						},
						{
							"internalType": "string",
							"name": "sex",
							"type": "string"
						}
					],
					"name": "addPlayer",
					"outputs": [],
					"stateMutability": "nonpayable",
					"type": "function"
				}
			],
			"devdoc": {
				"kind": "dev",
				"methods": {},
				"version": 1
			},
			"evm": {
				"assembly": "    /* \"firstcoin.sol\":32:266  contract Game {... */\n  mstore(0x40, 0x80)\n  callvalue\n  dup1\n  iszero\n  tag_1\n  jumpi\n  0x00\n  dup1\n  revert\ntag_1:\n  pop\n  dataSize(sub_0)\n  dup1\n  dataOffset(sub_0)\n  0x00\n  codecopy\n  0x00\n  return\nstop\n\nsub_0: assembly {\n        /* \"firstcoin.sol\":32:266  contract Game {... */\n      mstore(0x40, 0x80)\n      callvalue\n      dup1\n      iszero\n      tag_1\n      jumpi\n      0x00\n      dup1\n      revert\n    tag_1:\n      pop\n      jumpi(tag_2, lt(calldatasize, 0x04))\n      shr(0xe0, calldataload(0x00))\n      dup1\n      0xaab48c52\n      eq\n      tag_3\n      jumpi\n    tag_2:\n      0x00\n      dup1\n      revert\n        /* \"firstcoin.sol\":142:264  function addPlayer(string memory fullName, uint age, string memory sex) public {... */\n    tag_3:\n      tag_4\n      0x04\n      dup1\n      calldatasize\n      sub\n      dup2\n      add\n      swap1\n      tag_5\n      swap2\n      swap1\n      tag_6\n      jump\t// in\n    tag_5:\n      tag_7\n      jump\t// in\n    tag_4:\n      stop\n    tag_7:\n        /* \"firstcoin.sol\":231:257  Player(fullName, age, sex) */\n      mload(0x40)\n      dup1\n      0x60\n      add\n      0x40\n      mstore\n      dup1\n        /* \"firstcoin.sol\":238:246  fullName */\n      dup5\n        /* \"firstcoin.sol\":231:257  Player(fullName, age, sex) */\n      dup2\n      mstore\n      0x20\n      add\n        /* \"firstcoin.sol\":248:251  age */\n      dup4\n        /* \"firstcoin.sol\":231:257  Player(fullName, age, sex) */\n      dup2\n      mstore\n      0x20\n      add\n        /* \"firstcoin.sol\":253:256  sex */\n      dup3\n        /* \"firstcoin.sol\":231:257  Player(fullName, age, sex) */\n      dup2\n      mstore\n      pop\n      pop\n        /* \"firstcoin.sol\":142:264  function addPlayer(string memory fullName, uint age, string memory sex) public {... */\n      pop\n      pop\n      pop\n      jump\t// out\n        /* \"#utility.yul\":7:419   */\n    tag_10:\n        /* \"#utility.yul\":85:90   */\n      0x00\n        /* \"#utility.yul\":110:176   */\n      tag_12\n        /* \"#utility.yul\":126:175   */\n      tag_13\n        /* \"#utility.yul\":168:174   */\n      dup5\n        /* \"#utility.yul\":126:175   */\n      tag_14\n      jump\t// in\n    tag_13:\n        /* \"#utility.yul\":110:176   */\n      tag_15\n      jump\t// in\n    tag_12:\n        /* \"#utility.yul\":101:176   */\n      swap1\n      pop\n        /* \"#utility.yul\":199:205   */\n      dup3\n        /* \"#utility.yul\":192:197   */\n      dup2\n        /* \"#utility.yul\":185:206   */\n      mstore\n        /* \"#utility.yul\":237:241   */\n      0x20\n        /* \"#utility.yul\":230:235   */\n      dup2\n        /* \"#utility.yul\":226:242   */\n      add\n        /* \"#utility.yul\":275:278   */\n      dup5\n        /* \"#utility.yul\":266:272   */\n      dup5\n        /* \"#utility.yul\":261:264   */\n      dup5\n        /* \"#utility.yul\":257:273   */\n      add\n        /* \"#utility.yul\":254:279   */\n      gt\n        /* \"#utility.yul\":251:363   */\n      iszero\n      tag_16\n      jumpi\n        /* \"#utility.yul\":282:361   */\n      tag_17\n      tag_18\n      jump\t// in\n    tag_17:\n        /* \"#utility.yul\":251:363   */\n    tag_16:\n        /* \"#utility.yul\":372:413   */\n      tag_19\n        /* \"#utility.yul\":406:412   */\n      dup5\n        /* \"#utility.yul\":401:404   */\n      dup3\n        /* \"#utility.yul\":396:399   */\n      dup6\n        /* \"#utility.yul\":372:413   */\n      tag_20\n      jump\t// in\n    tag_19:\n        /* \"#utility.yul\":91:419   */\n      pop\n        /* \"#utility.yul\":7:419   */\n      swap4\n      swap3\n      pop\n      pop\n      pop\n      jump\t// out\n        /* \"#utility.yul\":439:779   */\n    tag_21:\n        /* \"#utility.yul\":495:500   */\n      0x00\n        /* \"#utility.yul\":544:547   */\n      dup3\n        /* \"#utility.yul\":537:541   */\n      0x1f\n        /* \"#utility.yul\":529:535   */\n      dup4\n        /* \"#utility.yul\":525:542   */\n      add\n        /* \"#utility.yul\":521:548   */\n      slt\n        /* \"#utility.yul\":511:633   */\n      tag_23\n      jumpi\n        /* \"#utility.yul\":552:631   */\n      tag_24\n      tag_25\n      jump\t// in\n    tag_24:\n        /* \"#utility.yul\":511:633   */\n    tag_23:\n        /* \"#utility.yul\":669:675   */\n      dup2\n        /* \"#utility.yul\":656:676   */\n      calldataload\n        /* \"#utility.yul\":694:773   */\n      tag_26\n        /* \"#utility.yul\":769:772   */\n      dup5\n        /* \"#utility.yul\":761:767   */\n      dup3\n        /* \"#utility.yul\":754:758   */\n      0x20\n        /* \"#utility.yul\":746:752   */\n      dup7\n        /* \"#utility.yul\":742:759   */\n      add\n        /* \"#utility.yul\":694:773   */\n      tag_10\n      jump\t// in\n    tag_26:\n        /* \"#utility.yul\":685:773   */\n      swap2\n      pop\n        /* \"#utility.yul\":501:779   */\n      pop\n        /* \"#utility.yul\":439:779   */\n      swap3\n      swap2\n      pop\n      pop\n      jump\t// out\n        /* \"#utility.yul\":785:924   */\n    tag_27:\n        /* \"#utility.yul\":831:836   */\n      0x00\n        /* \"#utility.yul\":869:875   */\n      dup2\n        /* \"#utility.yul\":856:876   */\n      calldataload\n        /* \"#utility.yul\":847:876   */\n      swap1\n      pop\n        /* \"#utility.yul\":885:918   */\n      tag_29\n        /* \"#utility.yul\":912:917   */\n      dup2\n        /* \"#utility.yul\":885:918   */\n      tag_30\n      jump\t// in\n    tag_29:\n        /* \"#utility.yul\":785:924   */\n      swap3\n      swap2\n      pop\n      pop\n      jump\t// out\n        /* \"#utility.yul\":930:1909   */\n    tag_6:\n        /* \"#utility.yul\":1027:1033   */\n      0x00\n        /* \"#utility.yul\":1035:1041   */\n      dup1\n        /* \"#utility.yul\":1043:1049   */\n      0x00\n        /* \"#utility.yul\":1092:1094   */\n      0x60\n        /* \"#utility.yul\":1080:1089   */\n      dup5\n        /* \"#utility.yul\":1071:1078   */\n      dup7\n        /* \"#utility.yul\":1067:1090   */\n      sub\n        /* \"#utility.yul\":1063:1095   */\n      slt\n        /* \"#utility.yul\":1060:1179   */\n      iszero\n      tag_32\n      jumpi\n        /* \"#utility.yul\":1098:1177   */\n      tag_33\n      tag_34\n      jump\t// in\n    tag_33:\n        /* \"#utility.yul\":1060:1179   */\n    tag_32:\n        /* \"#utility.yul\":1246:1247   */\n      0x00\n        /* \"#utility.yul\":1235:1244   */\n      dup5\n        /* \"#utility.yul\":1231:1248   */\n      add\n        /* \"#utility.yul\":1218:1249   */\n      calldataload\n        /* \"#utility.yul\":1276:1294   */\n      0xffffffffffffffff\n        /* \"#utility.yul\":1268:1274   */\n      dup2\n        /* \"#utility.yul\":1265:1295   */\n      gt\n        /* \"#utility.yul\":1262:1379   */\n      iszero\n      tag_35\n      jumpi\n        /* \"#utility.yul\":1298:1377   */\n      tag_36\n      tag_37\n      jump\t// in\n    tag_36:\n        /* \"#utility.yul\":1262:1379   */\n    tag_35:\n        /* \"#utility.yul\":1403:1466   */\n      tag_38\n        /* \"#utility.yul\":1458:1465   */\n      dup7\n        /* \"#utility.yul\":1449:1455   */\n      dup3\n        /* \"#utility.yul\":1438:1447   */\n      dup8\n        /* \"#utility.yul\":1434:1456   */\n      add\n        /* \"#utility.yul\":1403:1466   */\n      tag_21\n      jump\t// in\n    tag_38:\n        /* \"#utility.yul\":1393:1466   */\n      swap4\n      pop\n        /* \"#utility.yul\":1189:1476   */\n      pop\n        /* \"#utility.yul\":1515:1517   */\n      0x20\n        /* \"#utility.yul\":1541:1594   */\n      tag_39\n        /* \"#utility.yul\":1586:1593   */\n      dup7\n        /* \"#utility.yul\":1577:1583   */\n      dup3\n        /* \"#utility.yul\":1566:1575   */\n      dup8\n        /* \"#utility.yul\":1562:1584   */\n      add\n        /* \"#utility.yul\":1541:1594   */\n      tag_27\n      jump\t// in\n    tag_39:\n        /* \"#utility.yul\":1531:1594   */\n      swap3\n      pop\n        /* \"#utility.yul\":1486:1604   */\n      pop\n        /* \"#utility.yul\":1671:1673   */\n      0x40\n        /* \"#utility.yul\":1660:1669   */\n      dup5\n        /* \"#utility.yul\":1656:1674   */\n      add\n        /* \"#utility.yul\":1643:1675   */\n      calldataload\n        /* \"#utility.yul\":1702:1720   */\n      0xffffffffffffffff\n        /* \"#utility.yul\":1694:1700   */\n      dup2\n        /* \"#utility.yul\":1691:1721   */\n      gt\n        /* \"#utility.yul\":1688:1805   */\n      iszero\n      tag_40\n      jumpi\n        /* \"#utility.yul\":1724:1803   */\n      tag_41\n      tag_37\n      jump\t// in\n    tag_41:\n        /* \"#utility.yul\":1688:1805   */\n    tag_40:\n        /* \"#utility.yul\":1829:1892   */\n      tag_42\n        /* \"#utility.yul\":1884:1891   */\n      dup7\n        /* \"#utility.yul\":1875:1881   */\n      dup3\n        /* \"#utility.yul\":1864:1873   */\n      dup8\n        /* \"#utility.yul\":1860:1882   */\n      add\n        /* \"#utility.yul\":1829:1892   */\n      tag_21\n      jump\t// in\n    tag_42:\n        /* \"#utility.yul\":1819:1892   */\n      swap2\n      pop\n        /* \"#utility.yul\":1614:1902   */\n      pop\n        /* \"#utility.yul\":930:1909   */\n      swap3\n      pop\n      swap3\n      pop\n      swap3\n      jump\t// out\n        /* \"#utility.yul\":1915:2044   */\n    tag_15:\n        /* \"#utility.yul\":1949:1955   */\n      0x00\n        /* \"#utility.yul\":1976:1996   */\n      tag_44\n      tag_45\n      jump\t// in\n    tag_44:\n        /* \"#utility.yul\":1966:1996   */\n      swap1\n      pop\n        /* \"#utility.yul\":2005:2038   */\n      tag_46\n        /* \"#utility.yul\":2033:2037   */\n      dup3\n        /* \"#utility.yul\":2025:2031   */\n      dup3\n        /* \"#utility.yul\":2005:2038   */\n      tag_47\n      jump\t// in\n    tag_46:\n        /* \"#utility.yul\":1915:2044   */\n      swap2\n      swap1\n      pop\n      jump\t// out\n        /* \"#utility.yul\":2050:2125   */\n    tag_45:\n        /* \"#utility.yul\":2083:2089   */\n      0x00\n        /* \"#utility.yul\":2116:2118   */\n      0x40\n        /* \"#utility.yul\":2110:2119   */\n      mload\n        /* \"#utility.yul\":2100:2119   */\n      swap1\n      pop\n        /* \"#utility.yul\":2050:2125   */\n      swap1\n      jump\t// out\n        /* \"#utility.yul\":2131:2439   */\n    tag_14:\n        /* \"#utility.yul\":2193:2197   */\n      0x00\n        /* \"#utility.yul\":2283:2301   */\n      0xffffffffffffffff\n        /* \"#utility.yul\":2275:2281   */\n      dup3\n        /* \"#utility.yul\":2272:2302   */\n      gt\n        /* \"#utility.yul\":2269:2325   */\n      iszero\n      tag_50\n      jumpi\n        /* \"#utility.yul\":2305:2323   */\n      tag_51\n      tag_52\n      jump\t// in\n    tag_51:\n        /* \"#utility.yul\":2269:2325   */\n    tag_50:\n        /* \"#utility.yul\":2343:2372   */\n      tag_53\n        /* \"#utility.yul\":2365:2371   */\n      dup3\n        /* \"#utility.yul\":2343:2372   */\n      tag_54\n      jump\t// in\n    tag_53:\n        /* \"#utility.yul\":2335:2372   */\n      swap1\n      pop\n        /* \"#utility.yul\":2427:2431   */\n      0x20\n        /* \"#utility.yul\":2421:2425   */\n      dup2\n        /* \"#utility.yul\":2417:2432   */\n      add\n        /* \"#utility.yul\":2409:2432   */\n      swap1\n      pop\n        /* \"#utility.yul\":2131:2439   */\n      swap2\n      swap1\n      pop\n      jump\t// out\n        /* \"#utility.yul\":2445:2522   */\n    tag_55:\n        /* \"#utility.yul\":2482:2489   */\n      0x00\n        /* \"#utility.yul\":2511:2516   */\n      dup2\n        /* \"#utility.yul\":2500:2516   */\n      swap1\n      pop\n        /* \"#utility.yul\":2445:2522   */\n      swap2\n      swap1\n      pop\n      jump\t// out\n        /* \"#utility.yul\":2528:2682   */\n    tag_20:\n        /* \"#utility.yul\":2612:2618   */\n      dup3\n        /* \"#utility.yul\":2607:2610   */\n      dup2\n        /* \"#utility.yul\":2602:2605   */\n      dup4\n        /* \"#utility.yul\":2589:2619   */\n      calldatacopy\n        /* \"#utility.yul\":2674:2675   */\n      0x00\n        /* \"#utility.yul\":2665:2671   */\n      dup4\n        /* \"#utility.yul\":2660:2663   */\n      dup4\n        /* \"#utility.yul\":2656:2672   */\n      add\n        /* \"#utility.yul\":2649:2676   */\n      mstore\n        /* \"#utility.yul\":2528:2682   */\n      pop\n      pop\n      pop\n      jump\t// out\n        /* \"#utility.yul\":2688:2969   */\n    tag_47:\n        /* \"#utility.yul\":2771:2798   */\n      tag_59\n        /* \"#utility.yul\":2793:2797   */\n      dup3\n        /* \"#utility.yul\":2771:2798   */\n      tag_54\n      jump\t// in\n    tag_59:\n        /* \"#utility.yul\":2763:2769   */\n      dup2\n        /* \"#utility.yul\":2759:2799   */\n      add\n        /* \"#utility.yul\":2901:2907   */\n      dup2\n        /* \"#utility.yul\":2889:2899   */\n      dup2\n        /* \"#utility.yul\":2886:2908   */\n      lt\n        /* \"#utility.yul\":2865:2883   */\n      0xffffffffffffffff\n        /* \"#utility.yul\":2853:2863   */\n      dup3\n        /* \"#utility.yul\":2850:2884   */\n      gt\n        /* \"#utility.yul\":2847:2909   */\n      or\n        /* \"#utility.yul\":2844:2932   */\n      iszero\n      tag_60\n      jumpi\n        /* \"#utility.yul\":2912:2930   */\n      tag_61\n      tag_52\n      jump\t// in\n    tag_61:\n        /* \"#utility.yul\":2844:2932   */\n    tag_60:\n        /* \"#utility.yul\":2952:2962   */\n      dup1\n        /* \"#utility.yul\":2948:2950   */\n      0x40\n        /* \"#utility.yul\":2941:2963   */\n      mstore\n        /* \"#utility.yul\":2731:2969   */\n      pop\n        /* \"#utility.yul\":2688:2969   */\n      pop\n      pop\n      jump\t// out\n        /* \"#utility.yul\":2975:3155   */\n    tag_52:\n        /* \"#utility.yul\":3023:3100   */\n      0x4e487b7100000000000000000000000000000000000000000000000000000000\n        /* \"#utility.yul\":3020:3021   */\n      0x00\n        /* \"#utility.yul\":3013:3101   */\n      mstore\n        /* \"#utility.yul\":3120:3124   */\n      0x41\n        /* \"#utility.yul\":3117:3118   */\n      0x04\n        /* \"#utility.yul\":3110:3125   */\n      mstore\n        /* \"#utility.yul\":3144:3148   */\n      0x24\n        /* \"#utility.yul\":3141:3142   */\n      0x00\n        /* \"#utility.yul\":3134:3149   */\n      revert\n        /* \"#utility.yul\":3161:3278   */\n    tag_25:\n        /* \"#utility.yul\":3270:3271   */\n      0x00\n        /* \"#utility.yul\":3267:3268   */\n      dup1\n        /* \"#utility.yul\":3260:3272   */\n      revert\n        /* \"#utility.yul\":3284:3401   */\n    tag_18:\n        /* \"#utility.yul\":3393:3394   */\n      0x00\n        /* \"#utility.yul\":3390:3391   */\n      dup1\n        /* \"#utility.yul\":3383:3395   */\n      revert\n        /* \"#utility.yul\":3407:3524   */\n    tag_37:\n        /* \"#utility.yul\":3516:3517   */\n      0x00\n        /* \"#utility.yul\":3513:3514   */\n      dup1\n        /* \"#utility.yul\":3506:3518   */\n      revert\n        /* \"#utility.yul\":3530:3647   */\n    tag_34:\n        /* \"#utility.yul\":3639:3640   */\n      0x00\n        /* \"#utility.yul\":3636:3637   */\n      dup1\n        /* \"#utility.yul\":3629:3641   */\n      revert\n        /* \"#utility.yul\":3653:3755   */\n    tag_54:\n        /* \"#utility.yul\":3694:3700   */\n      0x00\n        /* \"#utility.yul\":3745:3747   */\n      0x1f\n        /* \"#utility.yul\":3741:3748   */\n      not\n        /* \"#utility.yul\":3736:3738   */\n      0x1f\n        /* \"#utility.yul\":3729:3734   */\n      dup4\n        /* \"#utility.yul\":3725:3739   */\n      add\n        /* \"#utility.yul\":3721:3749   */\n      and\n        /* \"#utility.yul\":3711:3749   */\n      swap1\n      pop\n        /* \"#utility.yul\":3653:3755   */\n      swap2\n      swap1\n      pop\n      jump\t// out\n        /* \"#utility.yul\":3761:3883   */\n    tag_30:\n        /* \"#utility.yul\":3834:3858   */\n      tag_69\n        /* \"#utility.yul\":3852:3857   */\n      dup2\n        /* \"#utility.yul\":3834:3858   */\n      tag_55\n      jump\t// in\n    tag_69:\n        /* \"#utility.yul\":3827:3832   */\n      dup2\n        /* \"#utility.yul\":3824:3859   */\n      eq\n        /* \"#utility.yul\":3814:3877   */\n      tag_70\n      jumpi\n        /* \"#utility.yul\":3873:3874   */\n      0x00\n        /* \"#utility.yul\":3870:3871   */\n      dup1\n        /* \"#utility.yul\":3863:3875   */\n      revert\n        /* \"#utility.yul\":3814:3877   */\n    tag_70:\n        /* \"#utility.yul\":3761:3883   */\n      pop\n      jump\t// out\n\n    auxdata: 0xa26469706673582212205d90027145811b21567fd733eb810c38a680b2dbdedeadde2f1a7f2e8f9bf1ae64736f6c63430008070033\n}\n",
				"bytecode": {
					"linkReferences": {},
					"object": "608060405234801561001057600080fd5b506102be806100206000396000f3fe608060405234801561001057600080fd5b506004361061002b5760003560e01c8063aab48c5214610030575b600080fd5b61004a600480360381019061004591906100f2565b61004c565b005b60405180606001604052808481526020018381526020018281525050505050565b600061008061007b846101a2565b61017d565b90508281526020810184848401111561009c5761009b610251565b5b6100a78482856101dd565b509392505050565b600082601f8301126100c4576100c361024c565b5b81356100d484826020860161006d565b91505092915050565b6000813590506100ec81610271565b92915050565b60008060006060848603121561010b5761010a61025b565b5b600084013567ffffffffffffffff81111561012957610128610256565b5b610135868287016100af565b9350506020610146868287016100dd565b925050604084013567ffffffffffffffff81111561016757610166610256565b5b610173868287016100af565b9150509250925092565b6000610187610198565b905061019382826101ec565b919050565b6000604051905090565b600067ffffffffffffffff8211156101bd576101bc61021d565b5b6101c682610260565b9050602081019050919050565b6000819050919050565b82818337600083830152505050565b6101f582610260565b810181811067ffffffffffffffff821117156102145761021361021d565b5b80604052505050565b7f4e487b7100000000000000000000000000000000000000000000000000000000600052604160045260246000fd5b600080fd5b600080fd5b600080fd5b600080fd5b6000601f19601f8301169050919050565b61027a816101d3565b811461028557600080fd5b5056fea26469706673582212205d90027145811b21567fd733eb810c38a680b2dbdedeadde2f1a7f2e8f9bf1ae64736f6c63430008070033",
					"opcodes": "PUSH1 0x80 PUSH1 0x40 MSTORE CALLVALUE DUP1 ISZERO PUSH2 0x10 JUMPI PUSH1 0x0 DUP1 REVERT JUMPDEST POP PUSH2 0x2BE DUP1 PUSH2 0x20 PUSH1 0x0 CODECOPY PUSH1 0x0 RETURN INVALID PUSH1 0x80 PUSH1 0x40 MSTORE CALLVALUE DUP1 ISZERO PUSH2 0x10 JUMPI PUSH1 0x0 DUP1 REVERT JUMPDEST POP PUSH1 0x4 CALLDATASIZE LT PUSH2 0x2B JUMPI PUSH1 0x0 CALLDATALOAD PUSH1 0xE0 SHR DUP1 PUSH4 0xAAB48C52 EQ PUSH2 0x30 JUMPI JUMPDEST PUSH1 0x0 DUP1 REVERT JUMPDEST PUSH2 0x4A PUSH1 0x4 DUP1 CALLDATASIZE SUB DUP2 ADD SWAP1 PUSH2 0x45 SWAP2 SWAP1 PUSH2 0xF2 JUMP JUMPDEST PUSH2 0x4C JUMP JUMPDEST STOP JUMPDEST PUSH1 0x40 MLOAD DUP1 PUSH1 0x60 ADD PUSH1 0x40 MSTORE DUP1 DUP5 DUP2 MSTORE PUSH1 0x20 ADD DUP4 DUP2 MSTORE PUSH1 0x20 ADD DUP3 DUP2 MSTORE POP POP POP POP POP JUMP JUMPDEST PUSH1 0x0 PUSH2 0x80 PUSH2 0x7B DUP5 PUSH2 0x1A2 JUMP JUMPDEST PUSH2 0x17D JUMP JUMPDEST SWAP1 POP DUP3 DUP2 MSTORE PUSH1 0x20 DUP2 ADD DUP5 DUP5 DUP5 ADD GT ISZERO PUSH2 0x9C JUMPI PUSH2 0x9B PUSH2 0x251 JUMP JUMPDEST JUMPDEST PUSH2 0xA7 DUP5 DUP3 DUP6 PUSH2 0x1DD JUMP JUMPDEST POP SWAP4 SWAP3 POP POP POP JUMP JUMPDEST PUSH1 0x0 DUP3 PUSH1 0x1F DUP4 ADD SLT PUSH2 0xC4 JUMPI PUSH2 0xC3 PUSH2 0x24C JUMP JUMPDEST JUMPDEST DUP2 CALLDATALOAD PUSH2 0xD4 DUP5 DUP3 PUSH1 0x20 DUP7 ADD PUSH2 0x6D JUMP JUMPDEST SWAP2 POP POP SWAP3 SWAP2 POP POP JUMP JUMPDEST PUSH1 0x0 DUP2 CALLDATALOAD SWAP1 POP PUSH2 0xEC DUP2 PUSH2 0x271 JUMP JUMPDEST SWAP3 SWAP2 POP POP JUMP JUMPDEST PUSH1 0x0 DUP1 PUSH1 0x0 PUSH1 0x60 DUP5 DUP7 SUB SLT ISZERO PUSH2 0x10B JUMPI PUSH2 0x10A PUSH2 0x25B JUMP JUMPDEST JUMPDEST PUSH1 0x0 DUP5 ADD CALLDATALOAD PUSH8 0xFFFFFFFFFFFFFFFF DUP2 GT ISZERO PUSH2 0x129 JUMPI PUSH2 0x128 PUSH2 0x256 JUMP JUMPDEST JUMPDEST PUSH2 0x135 DUP7 DUP3 DUP8 ADD PUSH2 0xAF JUMP JUMPDEST SWAP4 POP POP PUSH1 0x20 PUSH2 0x146 DUP7 DUP3 DUP8 ADD PUSH2 0xDD JUMP JUMPDEST SWAP3 POP POP PUSH1 0x40 DUP5 ADD CALLDATALOAD PUSH8 0xFFFFFFFFFFFFFFFF DUP2 GT ISZERO PUSH2 0x167 JUMPI PUSH2 0x166 PUSH2 0x256 JUMP JUMPDEST JUMPDEST PUSH2 0x173 DUP7 DUP3 DUP8 ADD PUSH2 0xAF JUMP JUMPDEST SWAP2 POP POP SWAP3 POP SWAP3 POP SWAP3 JUMP JUMPDEST PUSH1 0x0 PUSH2 0x187 PUSH2 0x198 JUMP JUMPDEST SWAP1 POP PUSH2 0x193 DUP3 DUP3 PUSH2 0x1EC JUMP JUMPDEST SWAP2 SWAP1 POP JUMP JUMPDEST PUSH1 0x0 PUSH1 0x40 MLOAD SWAP1 POP SWAP1 JUMP JUMPDEST PUSH1 0x0 PUSH8 0xFFFFFFFFFFFFFFFF DUP3 GT ISZERO PUSH2 0x1BD JUMPI PUSH2 0x1BC PUSH2 0x21D JUMP JUMPDEST JUMPDEST PUSH2 0x1C6 DUP3 PUSH2 0x260 JUMP JUMPDEST SWAP1 POP PUSH1 0x20 DUP2 ADD SWAP1 POP SWAP2 SWAP1 POP JUMP JUMPDEST PUSH1 0x0 DUP2 SWAP1 POP SWAP2 SWAP1 POP JUMP JUMPDEST DUP3 DUP2 DUP4 CALLDATACOPY PUSH1 0x0 DUP4 DUP4 ADD MSTORE POP POP POP JUMP JUMPDEST PUSH2 0x1F5 DUP3 PUSH2 0x260 JUMP JUMPDEST DUP2 ADD DUP2 DUP2 LT PUSH8 0xFFFFFFFFFFFFFFFF DUP3 GT OR ISZERO PUSH2 0x214 JUMPI PUSH2 0x213 PUSH2 0x21D JUMP JUMPDEST JUMPDEST DUP1 PUSH1 0x40 MSTORE POP POP POP JUMP JUMPDEST PUSH32 0x4E487B7100000000000000000000000000000000000000000000000000000000 PUSH1 0x0 MSTORE PUSH1 0x41 PUSH1 0x4 MSTORE PUSH1 0x24 PUSH1 0x0 REVERT JUMPDEST PUSH1 0x0 DUP1 REVERT JUMPDEST PUSH1 0x0 DUP1 REVERT JUMPDEST PUSH1 0x0 DUP1 REVERT JUMPDEST PUSH1 0x0 DUP1 REVERT JUMPDEST PUSH1 0x0 PUSH1 0x1F NOT PUSH1 0x1F DUP4 ADD AND SWAP1 POP SWAP2 SWAP1 POP JUMP JUMPDEST PUSH2 0x27A DUP2 PUSH2 0x1D3 JUMP JUMPDEST DUP2 EQ PUSH2 0x285 JUMPI PUSH1 0x0 DUP1 REVERT JUMPDEST POP JUMP INVALID LOG2 PUSH5 0x6970667358 0x22 SLT KECCAK256 0x5D SWAP1 MUL PUSH18 0x45811B21567FD733EB810C38A680B2DBDEDE 0xAD 0xDE 0x2F BYTE PUSH32 0x2E8F9BF1AE64736F6C6343000807003300000000000000000000000000000000 "
				},
				"gasEstimates": {
					"creation": {
						"codeDepositCost": "140400",
						"executionCost": "183",
						"totalCost": "140583"
					},
					"external": {
						"addPlayer(string,uint256,string)": "infinite"
					}
				},
				"methodIdentifiers": {
					"addPlayer(string,uint256,string)": "aab48c52"
				}
			},
			"storageLayout": {
				"storage": [],
				"types": null
			},
			"userdoc": {
				"kind": "user",
				"methods": {},
				"version": 1
			}
		}
	}
}