{
	"game.sol": {
		"Game": {
			"abi": [
				{
					"inputs": [
						{
							"internalType": "string",
							"name": "fullName",
							"type": "string"
						},
						{
							"internalType": "uint256",
							"name": "age",
							"type": "uint256"
						},
						{
							"internalType": "string",
							"name": "sex",
							"type": "string"
						}
					],
					"name": "addPlayer",
					"outputs": [],
					"stateMutability": "nonpayable",
					"type": "function"
				},
				{
					"inputs": [],
					"name": "countPlayer",
					"outputs": [
						{
							"internalType": "uint256",
							"name": "",
							"type": "uint256"
						}
					],
					"stateMutability": "view",
					"type": "function"
				},
				{
					"inputs": [
						{
							"internalType": "address",
							"name": "addressPlayer",
							"type": "address"
						}
					],
					"name": "getPlayerLevel",
					"outputs": [
						{
							"internalType": "enum Game.Level",
							"name": "",
							"type": "uint8"
						}
					],
					"stateMutability": "nonpayable",
					"type": "function"
				},
				{
					"inputs": [
						{
							"internalType": "address",
							"name": "",
							"type": "address"
						}
					],
					"name": "players",
					"outputs": [
						{
							"internalType": "address",
							"name": "addressPlayer",
							"type": "address"
						},
						{
							"internalType": "string",
							"name": "fullName",
							"type": "string"
						},
						{
							"internalType": "enum Game.Level",
							"name": "myLevel",
							"type": "uint8"
						},
						{
							"internalType": "uint256",
							"name": "age",
							"type": "uint256"
						},
						{
							"internalType": "string",
							"name": "sex",
							"type": "string"
						}
					],
					"stateMutability": "view",
					"type": "function"
				}
			],
			"devdoc": {
				"kind": "dev",
				"methods": {},
				"version": 1
			},
			"evm": {
				"assembly": "    /* \"game.sol\":32:657  contract Game {... */\n  mstore(0x40, 0x80)\n    /* \"game.sol\":78:79  0 */\n  0x00\n    /* \"game.sol\":53:79  uint public countPlayer =0 */\n  dup1\n  sstore\n    /* \"game.sol\":32:657  contract Game {... */\n  callvalue\n  dup1\n  iszero\n  tag_1\n  jumpi\n  0x00\n  dup1\n  revert\ntag_1:\n  pop\n  dataSize(sub_0)\n  dup1\n  dataOffset(sub_0)\n  0x00\n  codecopy\n  0x00\n  return\nstop\n\nsub_0: assembly {\n        /* \"game.sol\":32:657  contract Game {... */\n      mstore(0x40, 0x80)\n      callvalue\n      dup1\n      iszero\n      tag_1\n      jumpi\n      0x00\n      dup1\n      revert\n    tag_1:\n      pop\n      jumpi(tag_2, lt(calldatasize, 0x04))\n      shr(0xe0, calldataload(0x00))\n      dup1\n      0x34b735a1\n      eq\n      tag_3\n      jumpi\n      dup1\n      0xaaa006b2\n      eq\n      tag_4\n      jumpi\n      dup1\n      0xaab48c52\n      eq\n      tag_5\n      jumpi\n      dup1\n      0xe2eb41ff\n      eq\n      tag_6\n      jumpi\n    tag_2:\n      0x00\n      dup1\n      revert\n        /* \"game.sol\":531:655  function getPlayerLevel(address addressPlayer) public returns (Level) {... */\n    tag_3:\n      tag_7\n      0x04\n      dup1\n      calldatasize\n      sub\n      dup2\n      add\n      swap1\n      tag_8\n      swap2\n      swap1\n      tag_9\n      jump\t// in\n    tag_8:\n      tag_10\n      jump\t// in\n    tag_7:\n      mload(0x40)\n      tag_11\n      swap2\n      swap1\n      tag_12\n      jump\t// in\n    tag_11:\n      mload(0x40)\n      dup1\n      swap2\n      sub\n      swap1\n      return\n        /* \"game.sol\":53:79  uint public countPlayer =0 */\n    tag_4:\n      tag_13\n      tag_14\n      jump\t// in\n    tag_13:\n      mload(0x40)\n      tag_15\n      swap2\n      swap1\n      tag_16\n      jump\t// in\n    tag_15:\n      mload(0x40)\n      dup1\n      swap2\n      sub\n      swap1\n      return\n        /* \"game.sol\":327:525  function addPlayer(string memory fullName, uint age, string memory sex) public {... */\n    tag_5:\n      tag_17\n      0x04\n      dup1\n      calldatasize\n      sub\n      dup2\n      add\n      swap1\n      tag_18\n      swap2\n      swap1\n      tag_19\n      jump\t// in\n    tag_18:\n      tag_20\n      jump\t// in\n    tag_17:\n      stop\n        /* \"game.sol\":85:127  mapping (address => Player) public players */\n    tag_6:\n      tag_21\n      0x04\n      dup1\n      calldatasize\n      sub\n      dup2\n      add\n      swap1\n      tag_22\n      swap2\n      swap1\n      tag_9\n      jump\t// in\n    tag_22:\n      tag_23\n      jump\t// in\n    tag_21:\n      mload(0x40)\n      tag_24\n      swap6\n      swap5\n      swap4\n      swap3\n      swap2\n      swap1\n      tag_25\n      jump\t// in\n    tag_24:\n      mload(0x40)\n      dup1\n      swap2\n      sub\n      swap1\n      return\n        /* \"game.sol\":531:655  function getPlayerLevel(address addressPlayer) public returns (Level) {... */\n    tag_10:\n        /* \"game.sol\":594:599  Level */\n      0x00\n        /* \"game.sol\":618:625  players */\n      0x01\n        /* \"game.sol\":618:640  players[addressPlayer] */\n      0x00\n        /* \"game.sol\":626:639  addressPlayer */\n      dup4\n        /* \"game.sol\":618:640  players[addressPlayer] */\n      0xffffffffffffffffffffffffffffffffffffffff\n      and\n      0xffffffffffffffffffffffffffffffffffffffff\n      and\n      dup2\n      mstore\n      0x20\n      add\n      swap1\n      dup2\n      mstore\n      0x20\n      add\n      0x00\n      keccak256\n        /* \"game.sol\":618:648  players[addressPlayer].myLevel */\n      0x02\n      add\n      0x00\n      swap1\n      sload\n      swap1\n      0x0100\n      exp\n      swap1\n      div\n      0xff\n      and\n        /* \"game.sol\":611:648  return players[addressPlayer].myLevel */\n      swap1\n      pop\n        /* \"game.sol\":531:655  function getPlayerLevel(address addressPlayer) public returns (Level) {... */\n      swap2\n      swap1\n      pop\n      jump\t// out\n        /* \"game.sol\":53:79  uint public countPlayer =0 */\n    tag_14:\n      sload(0x00)\n      dup2\n      jump\t// out\n        /* \"game.sol\":327:525  function addPlayer(string memory fullName, uint age, string memory sex) public {... */\n    tag_20:\n        /* \"game.sol\":438:492  Player(msg.sender, fullName, Level.Beginner, age, sex) */\n      mload(0x40)\n      dup1\n      0xa0\n      add\n      0x40\n      mstore\n      dup1\n        /* \"game.sol\":445:455  msg.sender */\n      caller\n        /* \"game.sol\":438:492  Player(msg.sender, fullName, Level.Beginner, age, sex) */\n      0xffffffffffffffffffffffffffffffffffffffff\n      and\n      dup2\n      mstore\n      0x20\n      add\n        /* \"game.sol\":457:465  fullName */\n      dup5\n        /* \"game.sol\":438:492  Player(msg.sender, fullName, Level.Beginner, age, sex) */\n      dup2\n      mstore\n      0x20\n      add\n        /* \"game.sol\":467:481  Level.Beginner */\n      0x00\n        /* \"game.sol\":438:492  Player(msg.sender, fullName, Level.Beginner, age, sex) */\n      0x02\n      dup2\n      gt\n      iszero\n      tag_28\n      jumpi\n      tag_29\n      tag_30\n      jump\t// in\n    tag_29:\n    tag_28:\n      dup2\n      mstore\n      0x20\n      add\n        /* \"game.sol\":483:486  age */\n      dup4\n        /* \"game.sol\":438:492  Player(msg.sender, fullName, Level.Beginner, age, sex) */\n      dup2\n      mstore\n      0x20\n      add\n        /* \"game.sol\":488:491  sex */\n      dup3\n        /* \"game.sol\":438:492  Player(msg.sender, fullName, Level.Beginner, age, sex) */\n      dup2\n      mstore\n      pop\n        /* \"game.sol\":416:423  players */\n      0x01\n        /* \"game.sol\":416:435  players[msg.sender] */\n      0x00\n        /* \"game.sol\":424:434  msg.sender */\n      caller\n        /* \"game.sol\":416:435  players[msg.sender] */\n      0xffffffffffffffffffffffffffffffffffffffff\n      and\n      0xffffffffffffffffffffffffffffffffffffffff\n      and\n      dup2\n      mstore\n      0x20\n      add\n      swap1\n      dup2\n      mstore\n      0x20\n      add\n      0x00\n      keccak256\n        /* \"game.sol\":416:492  players[msg.sender] = Player(msg.sender, fullName, Level.Beginner, age, sex) */\n      0x00\n      dup3\n      add\n      mload\n      dup2\n      0x00\n      add\n      exp(0x0100, 0x00)\n      dup2\n      sload\n      dup2\n      0xffffffffffffffffffffffffffffffffffffffff\n      mul\n      not\n      and\n      swap1\n      dup4\n      0xffffffffffffffffffffffffffffffffffffffff\n      and\n      mul\n      or\n      swap1\n      sstore\n      pop\n      0x20\n      dup3\n      add\n      mload\n      dup2\n      0x01\n      add\n      swap1\n      dup1\n      mload\n      swap1\n      0x20\n      add\n      swap1\n      tag_31\n      swap3\n      swap2\n      swap1\n      tag_32\n      jump\t// in\n    tag_31:\n      pop\n      0x40\n      dup3\n      add\n      mload\n      dup2\n      0x02\n      add\n      exp(0x0100, 0x00)\n      dup2\n      sload\n      dup2\n      0xff\n      mul\n      not\n      and\n      swap1\n      dup4\n      0x02\n      dup2\n      gt\n      iszero\n      tag_33\n      jumpi\n      tag_34\n      tag_30\n      jump\t// in\n    tag_34:\n    tag_33:\n      mul\n      or\n      swap1\n      sstore\n      pop\n      0x60\n      dup3\n      add\n      mload\n      dup2\n      0x03\n      add\n      sstore\n      0x80\n      dup3\n      add\n      mload\n      dup2\n      0x04\n      add\n      swap1\n      dup1\n      mload\n      swap1\n      0x20\n      add\n      swap1\n      tag_35\n      swap3\n      swap2\n      swap1\n      tag_32\n      jump\t// in\n    tag_35:\n      pop\n      swap1\n      pop\n      pop\n        /* \"game.sol\":517:518  1 */\n      0x01\n        /* \"game.sol\":502:513  countPlayer */\n      0x00\n      dup1\n        /* \"game.sol\":502:518  countPlayer += 1 */\n      dup3\n      dup3\n      sload\n      tag_36\n      swap2\n      swap1\n      tag_37\n      jump\t// in\n    tag_36:\n      swap3\n      pop\n      pop\n      dup2\n      swap1\n      sstore\n      pop\n        /* \"game.sol\":327:525  function addPlayer(string memory fullName, uint age, string memory sex) public {... */\n      pop\n      pop\n      pop\n      jump\t// out\n        /* \"game.sol\":85:127  mapping (address => Player) public players */\n    tag_23:\n      mstore(0x20, 0x01)\n      dup1\n      0x00\n      mstore\n      keccak256(0x00, 0x40)\n      0x00\n      swap2\n      pop\n      swap1\n      pop\n      dup1\n      0x00\n      add\n      0x00\n      swap1\n      sload\n      swap1\n      0x0100\n      exp\n      swap1\n      div\n      0xffffffffffffffffffffffffffffffffffffffff\n      and\n      swap1\n      dup1\n      0x01\n      add\n      dup1\n      sload\n      tag_38\n      swap1\n      tag_39\n      jump\t// in\n    tag_38:\n      dup1\n      0x1f\n      add\n      0x20\n      dup1\n      swap2\n      div\n      mul\n      0x20\n      add\n      mload(0x40)\n      swap1\n      dup2\n      add\n      0x40\n      mstore\n      dup1\n      swap3\n      swap2\n      swap1\n      dup2\n      dup2\n      mstore\n      0x20\n      add\n      dup3\n      dup1\n      sload\n      tag_40\n      swap1\n      tag_39\n      jump\t// in\n    tag_40:\n      dup1\n      iszero\n      tag_41\n      jumpi\n      dup1\n      0x1f\n      lt\n      tag_42\n      jumpi\n      0x0100\n      dup1\n      dup4\n      sload\n      div\n      mul\n      dup4\n      mstore\n      swap2\n      0x20\n      add\n      swap2\n      jump(tag_41)\n    tag_42:\n      dup3\n      add\n      swap2\n      swap1\n      0x00\n      mstore\n      keccak256(0x00, 0x20)\n      swap1\n    tag_43:\n      dup2\n      sload\n      dup2\n      mstore\n      swap1\n      0x01\n      add\n      swap1\n      0x20\n      add\n      dup1\n      dup4\n      gt\n      tag_43\n      jumpi\n      dup3\n      swap1\n      sub\n      0x1f\n      and\n      dup3\n      add\n      swap2\n    tag_41:\n      pop\n      pop\n      pop\n      pop\n      pop\n      swap1\n      dup1\n      0x02\n      add\n      0x00\n      swap1\n      sload\n      swap1\n      0x0100\n      exp\n      swap1\n      div\n      0xff\n      and\n      swap1\n      dup1\n      0x03\n      add\n      sload\n      swap1\n      dup1\n      0x04\n      add\n      dup1\n      sload\n      tag_44\n      swap1\n      tag_39\n      jump\t// in\n    tag_44:\n      dup1\n      0x1f\n      add\n      0x20\n      dup1\n      swap2\n      div\n      mul\n      0x20\n      add\n      mload(0x40)\n      swap1\n      dup2\n      add\n      0x40\n      mstore\n      dup1\n      swap3\n      swap2\n      swap1\n      dup2\n      dup2\n      mstore\n      0x20\n      add\n      dup3\n      dup1\n      sload\n      tag_45\n      swap1\n      tag_39\n      jump\t// in\n    tag_45:\n      dup1\n      iszero\n      tag_46\n      jumpi\n      dup1\n      0x1f\n      lt\n      tag_47\n      jumpi\n      0x0100\n      dup1\n      dup4\n      sload\n      div\n      mul\n      dup4\n      mstore\n      swap2\n      0x20\n      add\n      swap2\n      jump(tag_46)\n    tag_47:\n      dup3\n      add\n      swap2\n      swap1\n      0x00\n      mstore\n      keccak256(0x00, 0x20)\n      swap1\n    tag_48:\n      dup2\n      sload\n      dup2\n      mstore\n      swap1\n      0x01\n      add\n      swap1\n      0x20\n      add\n      dup1\n      dup4\n      gt\n      tag_48\n      jumpi\n      dup3\n      swap1\n      sub\n      0x1f\n      and\n      dup3\n      add\n      swap2\n    tag_46:\n      pop\n      pop\n      pop\n      pop\n      pop\n      swap1\n      pop\n      dup6\n      jump\t// out\n    tag_32:\n      dup3\n      dup1\n      sload\n      tag_49\n      swap1\n      tag_39\n      jump\t// in\n    tag_49:\n      swap1\n      0x00\n      mstore\n      keccak256(0x00, 0x20)\n      swap1\n      0x1f\n      add\n      0x20\n      swap1\n      div\n      dup2\n      add\n      swap3\n      dup3\n      tag_51\n      jumpi\n      0x00\n      dup6\n      sstore\n      jump(tag_50)\n    tag_51:\n      dup3\n      0x1f\n      lt\n      tag_52\n      jumpi\n      dup1\n      mload\n      not(0xff)\n      and\n      dup4\n      dup1\n      add\n      or\n      dup6\n      sstore\n      jump(tag_50)\n    tag_52:\n      dup3\n      dup1\n      add\n      0x01\n      add\n      dup6\n      sstore\n      dup3\n      iszero\n      tag_50\n      jumpi\n      swap2\n      dup3\n      add\n    tag_53:\n      dup3\n      dup2\n      gt\n      iszero\n      tag_54\n      jumpi\n      dup3\n      mload\n      dup3\n      sstore\n      swap2\n      0x20\n      add\n      swap2\n      swap1\n      0x01\n      add\n      swap1\n      jump(tag_53)\n    tag_54:\n    tag_50:\n      pop\n      swap1\n      pop\n      tag_55\n      swap2\n      swap1\n      tag_56\n      jump\t// in\n    tag_55:\n      pop\n      swap1\n      jump\t// out\n    tag_56:\n    tag_57:\n      dup1\n      dup3\n      gt\n      iszero\n      tag_58\n      jumpi\n      0x00\n      dup2\n      0x00\n      swap1\n      sstore\n      pop\n      0x01\n      add\n      jump(tag_57)\n    tag_58:\n      pop\n      swap1\n      jump\t// out\n        /* \"#utility.yul\":7:419   */\n    tag_60:\n        /* \"#utility.yul\":85:90   */\n      0x00\n        /* \"#utility.yul\":110:176   */\n      tag_62\n        /* \"#utility.yul\":126:175   */\n      tag_63\n        /* \"#utility.yul\":168:174   */\n      dup5\n        /* \"#utility.yul\":126:175   */\n      tag_64\n      jump\t// in\n    tag_63:\n        /* \"#utility.yul\":110:176   */\n      tag_65\n      jump\t// in\n    tag_62:\n        /* \"#utility.yul\":101:176   */\n      swap1\n      pop\n        /* \"#utility.yul\":199:205   */\n      dup3\n        /* \"#utility.yul\":192:197   */\n      dup2\n        /* \"#utility.yul\":185:206   */\n      mstore\n        /* \"#utility.yul\":237:241   */\n      0x20\n        /* \"#utility.yul\":230:235   */\n      dup2\n        /* \"#utility.yul\":226:242   */\n      add\n        /* \"#utility.yul\":275:278   */\n      dup5\n        /* \"#utility.yul\":266:272   */\n      dup5\n        /* \"#utility.yul\":261:264   */\n      dup5\n        /* \"#utility.yul\":257:273   */\n      add\n        /* \"#utility.yul\":254:279   */\n      gt\n        /* \"#utility.yul\":251:363   */\n      iszero\n      tag_66\n      jumpi\n        /* \"#utility.yul\":282:361   */\n      tag_67\n      tag_68\n      jump\t// in\n    tag_67:\n        /* \"#utility.yul\":251:363   */\n    tag_66:\n        /* \"#utility.yul\":372:413   */\n      tag_69\n        /* \"#utility.yul\":406:412   */\n      dup5\n        /* \"#utility.yul\":401:404   */\n      dup3\n        /* \"#utility.yul\":396:399   */\n      dup6\n        /* \"#utility.yul\":372:413   */\n      tag_70\n      jump\t// in\n    tag_69:\n        /* \"#utility.yul\":91:419   */\n      pop\n        /* \"#utility.yul\":7:419   */\n      swap4\n      swap3\n      pop\n      pop\n      pop\n      jump\t// out\n        /* \"#utility.yul\":425:564   */\n    tag_71:\n        /* \"#utility.yul\":471:476   */\n      0x00\n        /* \"#utility.yul\":509:515   */\n      dup2\n        /* \"#utility.yul\":496:516   */\n      calldataload\n        /* \"#utility.yul\":487:516   */\n      swap1\n      pop\n        /* \"#utility.yul\":525:558   */\n      tag_73\n        /* \"#utility.yul\":552:557   */\n      dup2\n        /* \"#utility.yul\":525:558   */\n      tag_74\n      jump\t// in\n    tag_73:\n        /* \"#utility.yul\":425:564   */\n      swap3\n      swap2\n      pop\n      pop\n      jump\t// out\n        /* \"#utility.yul\":584:924   */\n    tag_75:\n        /* \"#utility.yul\":640:645   */\n      0x00\n        /* \"#utility.yul\":689:692   */\n      dup3\n        /* \"#utility.yul\":682:686   */\n      0x1f\n        /* \"#utility.yul\":674:680   */\n      dup4\n        /* \"#utility.yul\":670:687   */\n      add\n        /* \"#utility.yul\":666:693   */\n      slt\n        /* \"#utility.yul\":656:778   */\n      tag_77\n      jumpi\n        /* \"#utility.yul\":697:776   */\n      tag_78\n      tag_79\n      jump\t// in\n    tag_78:\n        /* \"#utility.yul\":656:778   */\n    tag_77:\n        /* \"#utility.yul\":814:820   */\n      dup2\n        /* \"#utility.yul\":801:821   */\n      calldataload\n        /* \"#utility.yul\":839:918   */\n      tag_80\n        /* \"#utility.yul\":914:917   */\n      dup5\n        /* \"#utility.yul\":906:912   */\n      dup3\n        /* \"#utility.yul\":899:903   */\n      0x20\n        /* \"#utility.yul\":891:897   */\n      dup7\n        /* \"#utility.yul\":887:904   */\n      add\n        /* \"#utility.yul\":839:918   */\n      tag_60\n      jump\t// in\n    tag_80:\n        /* \"#utility.yul\":830:918   */\n      swap2\n      pop\n        /* \"#utility.yul\":646:924   */\n      pop\n        /* \"#utility.yul\":584:924   */\n      swap3\n      swap2\n      pop\n      pop\n      jump\t// out\n        /* \"#utility.yul\":930:1069   */\n    tag_81:\n        /* \"#utility.yul\":976:981   */\n      0x00\n        /* \"#utility.yul\":1014:1020   */\n      dup2\n        /* \"#utility.yul\":1001:1021   */\n      calldataload\n        /* \"#utility.yul\":992:1021   */\n      swap1\n      pop\n        /* \"#utility.yul\":1030:1063   */\n      tag_83\n        /* \"#utility.yul\":1057:1062   */\n      dup2\n        /* \"#utility.yul\":1030:1063   */\n      tag_84\n      jump\t// in\n    tag_83:\n        /* \"#utility.yul\":930:1069   */\n      swap3\n      swap2\n      pop\n      pop\n      jump\t// out\n        /* \"#utility.yul\":1075:1404   */\n    tag_9:\n        /* \"#utility.yul\":1134:1140   */\n      0x00\n        /* \"#utility.yul\":1183:1185   */\n      0x20\n        /* \"#utility.yul\":1171:1180   */\n      dup3\n        /* \"#utility.yul\":1162:1169   */\n      dup5\n        /* \"#utility.yul\":1158:1181   */\n      sub\n        /* \"#utility.yul\":1154:1186   */\n      slt\n        /* \"#utility.yul\":1151:1270   */\n      iszero\n      tag_86\n      jumpi\n        /* \"#utility.yul\":1189:1268   */\n      tag_87\n      tag_88\n      jump\t// in\n    tag_87:\n        /* \"#utility.yul\":1151:1270   */\n    tag_86:\n        /* \"#utility.yul\":1309:1310   */\n      0x00\n        /* \"#utility.yul\":1334:1387   */\n      tag_89\n        /* \"#utility.yul\":1379:1386   */\n      dup5\n        /* \"#utility.yul\":1370:1376   */\n      dup3\n        /* \"#utility.yul\":1359:1368   */\n      dup6\n        /* \"#utility.yul\":1355:1377   */\n      add\n        /* \"#utility.yul\":1334:1387   */\n      tag_71\n      jump\t// in\n    tag_89:\n        /* \"#utility.yul\":1324:1387   */\n      swap2\n      pop\n        /* \"#utility.yul\":1280:1397   */\n      pop\n        /* \"#utility.yul\":1075:1404   */\n      swap3\n      swap2\n      pop\n      pop\n      jump\t// out\n        /* \"#utility.yul\":1410:2389   */\n    tag_19:\n        /* \"#utility.yul\":1507:1513   */\n      0x00\n        /* \"#utility.yul\":1515:1521   */\n      dup1\n        /* \"#utility.yul\":1523:1529   */\n      0x00\n        /* \"#utility.yul\":1572:1574   */\n      0x60\n        /* \"#utility.yul\":1560:1569   */\n      dup5\n        /* \"#utility.yul\":1551:1558   */\n      dup7\n        /* \"#utility.yul\":1547:1570   */\n      sub\n        /* \"#utility.yul\":1543:1575   */\n      slt\n        /* \"#utility.yul\":1540:1659   */\n      iszero\n      tag_91\n      jumpi\n        /* \"#utility.yul\":1578:1657   */\n      tag_92\n      tag_88\n      jump\t// in\n    tag_92:\n        /* \"#utility.yul\":1540:1659   */\n    tag_91:\n        /* \"#utility.yul\":1726:1727   */\n      0x00\n        /* \"#utility.yul\":1715:1724   */\n      dup5\n        /* \"#utility.yul\":1711:1728   */\n      add\n        /* \"#utility.yul\":1698:1729   */\n      calldataload\n        /* \"#utility.yul\":1756:1774   */\n      0xffffffffffffffff\n        /* \"#utility.yul\":1748:1754   */\n      dup2\n        /* \"#utility.yul\":1745:1775   */\n      gt\n        /* \"#utility.yul\":1742:1859   */\n      iszero\n      tag_93\n      jumpi\n        /* \"#utility.yul\":1778:1857   */\n      tag_94\n      tag_95\n      jump\t// in\n    tag_94:\n        /* \"#utility.yul\":1742:1859   */\n    tag_93:\n        /* \"#utility.yul\":1883:1946   */\n      tag_96\n        /* \"#utility.yul\":1938:1945   */\n      dup7\n        /* \"#utility.yul\":1929:1935   */\n      dup3\n        /* \"#utility.yul\":1918:1927   */\n      dup8\n        /* \"#utility.yul\":1914:1936   */\n      add\n        /* \"#utility.yul\":1883:1946   */\n      tag_75\n      jump\t// in\n    tag_96:\n        /* \"#utility.yul\":1873:1946   */\n      swap4\n      pop\n        /* \"#utility.yul\":1669:1956   */\n      pop\n        /* \"#utility.yul\":1995:1997   */\n      0x20\n        /* \"#utility.yul\":2021:2074   */\n      tag_97\n        /* \"#utility.yul\":2066:2073   */\n      dup7\n        /* \"#utility.yul\":2057:2063   */\n      dup3\n        /* \"#utility.yul\":2046:2055   */\n      dup8\n        /* \"#utility.yul\":2042:2064   */\n      add\n        /* \"#utility.yul\":2021:2074   */\n      tag_81\n      jump\t// in\n    tag_97:\n        /* \"#utility.yul\":2011:2074   */\n      swap3\n      pop\n        /* \"#utility.yul\":1966:2084   */\n      pop\n        /* \"#utility.yul\":2151:2153   */\n      0x40\n        /* \"#utility.yul\":2140:2149   */\n      dup5\n        /* \"#utility.yul\":2136:2154   */\n      add\n        /* \"#utility.yul\":2123:2155   */\n      calldataload\n        /* \"#utility.yul\":2182:2200   */\n      0xffffffffffffffff\n        /* \"#utility.yul\":2174:2180   */\n      dup2\n        /* \"#utility.yul\":2171:2201   */\n      gt\n        /* \"#utility.yul\":2168:2285   */\n      iszero\n      tag_98\n      jumpi\n        /* \"#utility.yul\":2204:2283   */\n      tag_99\n      tag_95\n      jump\t// in\n    tag_99:\n        /* \"#utility.yul\":2168:2285   */\n    tag_98:\n        /* \"#utility.yul\":2309:2372   */\n      tag_100\n        /* \"#utility.yul\":2364:2371   */\n      dup7\n        /* \"#utility.yul\":2355:2361   */\n      dup3\n        /* \"#utility.yul\":2344:2353   */\n      dup8\n        /* \"#utility.yul\":2340:2362   */\n      add\n        /* \"#utility.yul\":2309:2372   */\n      tag_75\n      jump\t// in\n    tag_100:\n        /* \"#utility.yul\":2299:2372   */\n      swap2\n      pop\n        /* \"#utility.yul\":2094:2382   */\n      pop\n        /* \"#utility.yul\":1410:2389   */\n      swap3\n      pop\n      swap3\n      pop\n      swap3\n      jump\t// out\n        /* \"#utility.yul\":2395:2513   */\n    tag_101:\n        /* \"#utility.yul\":2482:2506   */\n      tag_103\n        /* \"#utility.yul\":2500:2505   */\n      dup2\n        /* \"#utility.yul\":2482:2506   */\n      tag_104\n      jump\t// in\n    tag_103:\n        /* \"#utility.yul\":2477:2480   */\n      dup3\n        /* \"#utility.yul\":2470:2507   */\n      mstore\n        /* \"#utility.yul\":2395:2513   */\n      pop\n      pop\n      jump\t// out\n        /* \"#utility.yul\":2519:2662   */\n    tag_105:\n        /* \"#utility.yul\":2612:2655   */\n      tag_107\n        /* \"#utility.yul\":2649:2654   */\n      dup2\n        /* \"#utility.yul\":2612:2655   */\n      tag_108\n      jump\t// in\n    tag_107:\n        /* \"#utility.yul\":2607:2610   */\n      dup3\n        /* \"#utility.yul\":2600:2656   */\n      mstore\n        /* \"#utility.yul\":2519:2662   */\n      pop\n      pop\n      jump\t// out\n        /* \"#utility.yul\":2668:3032   */\n    tag_109:\n        /* \"#utility.yul\":2756:2759   */\n      0x00\n        /* \"#utility.yul\":2784:2823   */\n      tag_111\n        /* \"#utility.yul\":2817:2822   */\n      dup3\n        /* \"#utility.yul\":2784:2823   */\n      tag_112\n      jump\t// in\n    tag_111:\n        /* \"#utility.yul\":2839:2910   */\n      tag_113\n        /* \"#utility.yul\":2903:2909   */\n      dup2\n        /* \"#utility.yul\":2898:2901   */\n      dup6\n        /* \"#utility.yul\":2839:2910   */\n      tag_114\n      jump\t// in\n    tag_113:\n        /* \"#utility.yul\":2832:2910   */\n      swap4\n      pop\n        /* \"#utility.yul\":2919:2971   */\n      tag_115\n        /* \"#utility.yul\":2964:2970   */\n      dup2\n        /* \"#utility.yul\":2959:2962   */\n      dup6\n        /* \"#utility.yul\":2952:2956   */\n      0x20\n        /* \"#utility.yul\":2945:2950   */\n      dup7\n        /* \"#utility.yul\":2941:2957   */\n      add\n        /* \"#utility.yul\":2919:2971   */\n      tag_116\n      jump\t// in\n    tag_115:\n        /* \"#utility.yul\":2996:3025   */\n      tag_117\n        /* \"#utility.yul\":3018:3024   */\n      dup2\n        /* \"#utility.yul\":2996:3025   */\n      tag_118\n      jump\t// in\n    tag_117:\n        /* \"#utility.yul\":2991:2994   */\n      dup5\n        /* \"#utility.yul\":2987:3026   */\n      add\n        /* \"#utility.yul\":2980:3026   */\n      swap2\n      pop\n        /* \"#utility.yul\":2760:3032   */\n      pop\n        /* \"#utility.yul\":2668:3032   */\n      swap3\n      swap2\n      pop\n      pop\n      jump\t// out\n        /* \"#utility.yul\":3038:3156   */\n    tag_119:\n        /* \"#utility.yul\":3125:3149   */\n      tag_121\n        /* \"#utility.yul\":3143:3148   */\n      dup2\n        /* \"#utility.yul\":3125:3149   */\n      tag_122\n      jump\t// in\n    tag_121:\n        /* \"#utility.yul\":3120:3123   */\n      dup3\n        /* \"#utility.yul\":3113:3150   */\n      mstore\n        /* \"#utility.yul\":3038:3156   */\n      pop\n      pop\n      jump\t// out\n        /* \"#utility.yul\":3162:4020   */\n    tag_25:\n        /* \"#utility.yul\":3413:3417   */\n      0x00\n        /* \"#utility.yul\":3451:3454   */\n      0xa0\n        /* \"#utility.yul\":3440:3449   */\n      dup3\n        /* \"#utility.yul\":3436:3455   */\n      add\n        /* \"#utility.yul\":3428:3455   */\n      swap1\n      pop\n        /* \"#utility.yul\":3465:3536   */\n      tag_124\n        /* \"#utility.yul\":3533:3534   */\n      0x00\n        /* \"#utility.yul\":3522:3531   */\n      dup4\n        /* \"#utility.yul\":3518:3535   */\n      add\n        /* \"#utility.yul\":3509:3515   */\n      dup9\n        /* \"#utility.yul\":3465:3536   */\n      tag_101\n      jump\t// in\n    tag_124:\n        /* \"#utility.yul\":3583:3592   */\n      dup2\n        /* \"#utility.yul\":3577:3581   */\n      dup2\n        /* \"#utility.yul\":3573:3593   */\n      sub\n        /* \"#utility.yul\":3568:3570   */\n      0x20\n        /* \"#utility.yul\":3557:3566   */\n      dup4\n        /* \"#utility.yul\":3553:3571   */\n      add\n        /* \"#utility.yul\":3546:3594   */\n      mstore\n        /* \"#utility.yul\":3611:3689   */\n      tag_125\n        /* \"#utility.yul\":3684:3688   */\n      dup2\n        /* \"#utility.yul\":3675:3681   */\n      dup8\n        /* \"#utility.yul\":3611:3689   */\n      tag_109\n      jump\t// in\n    tag_125:\n        /* \"#utility.yul\":3603:3689   */\n      swap1\n      pop\n        /* \"#utility.yul\":3699:3777   */\n      tag_126\n        /* \"#utility.yul\":3773:3775   */\n      0x40\n        /* \"#utility.yul\":3762:3771   */\n      dup4\n        /* \"#utility.yul\":3758:3776   */\n      add\n        /* \"#utility.yul\":3749:3755   */\n      dup7\n        /* \"#utility.yul\":3699:3777   */\n      tag_105\n      jump\t// in\n    tag_126:\n        /* \"#utility.yul\":3787:3859   */\n      tag_127\n        /* \"#utility.yul\":3855:3857   */\n      0x60\n        /* \"#utility.yul\":3844:3853   */\n      dup4\n        /* \"#utility.yul\":3840:3858   */\n      add\n        /* \"#utility.yul\":3831:3837   */\n      dup6\n        /* \"#utility.yul\":3787:3859   */\n      tag_119\n      jump\t// in\n    tag_127:\n        /* \"#utility.yul\":3907:3916   */\n      dup2\n        /* \"#utility.yul\":3901:3905   */\n      dup2\n        /* \"#utility.yul\":3897:3917   */\n      sub\n        /* \"#utility.yul\":3891:3894   */\n      0x80\n        /* \"#utility.yul\":3880:3889   */\n      dup4\n        /* \"#utility.yul\":3876:3895   */\n      add\n        /* \"#utility.yul\":3869:3918   */\n      mstore\n        /* \"#utility.yul\":3935:4013   */\n      tag_128\n        /* \"#utility.yul\":4008:4012   */\n      dup2\n        /* \"#utility.yul\":3999:4005   */\n      dup5\n        /* \"#utility.yul\":3935:4013   */\n      tag_109\n      jump\t// in\n    tag_128:\n        /* \"#utility.yul\":3927:4013   */\n      swap1\n      pop\n        /* \"#utility.yul\":3162:4020   */\n      swap7\n      swap6\n      pop\n      pop\n      pop\n      pop\n      pop\n      pop\n      jump\t// out\n        /* \"#utility.yul\":4026:4260   */\n    tag_12:\n        /* \"#utility.yul\":4125:4129   */\n      0x00\n        /* \"#utility.yul\":4163:4165   */\n      0x20\n        /* \"#utility.yul\":4152:4161   */\n      dup3\n        /* \"#utility.yul\":4148:4166   */\n      add\n        /* \"#utility.yul\":4140:4166   */\n      swap1\n      pop\n        /* \"#utility.yul\":4176:4253   */\n      tag_130\n        /* \"#utility.yul\":4250:4251   */\n      0x00\n        /* \"#utility.yul\":4239:4248   */\n      dup4\n        /* \"#utility.yul\":4235:4252   */\n      add\n        /* \"#utility.yul\":4226:4232   */\n      dup5\n        /* \"#utility.yul\":4176:4253   */\n      tag_105\n      jump\t// in\n    tag_130:\n        /* \"#utility.yul\":4026:4260   */\n      swap3\n      swap2\n      pop\n      pop\n      jump\t// out\n        /* \"#utility.yul\":4266:4488   */\n    tag_16:\n        /* \"#utility.yul\":4359:4363   */\n      0x00\n        /* \"#utility.yul\":4397:4399   */\n      0x20\n        /* \"#utility.yul\":4386:4395   */\n      dup3\n        /* \"#utility.yul\":4382:4400   */\n      add\n        /* \"#utility.yul\":4374:4400   */\n      swap1\n      pop\n        /* \"#utility.yul\":4410:4481   */\n      tag_132\n        /* \"#utility.yul\":4478:4479   */\n      0x00\n        /* \"#utility.yul\":4467:4476   */\n      dup4\n        /* \"#utility.yul\":4463:4480   */\n      add\n        /* \"#utility.yul\":4454:4460   */\n      dup5\n        /* \"#utility.yul\":4410:4481   */\n      tag_119\n      jump\t// in\n    tag_132:\n        /* \"#utility.yul\":4266:4488   */\n      swap3\n      swap2\n      pop\n      pop\n      jump\t// out\n        /* \"#utility.yul\":4494:4623   */\n    tag_65:\n        /* \"#utility.yul\":4528:4534   */\n      0x00\n        /* \"#utility.yul\":4555:4575   */\n      tag_134\n      tag_135\n      jump\t// in\n    tag_134:\n        /* \"#utility.yul\":4545:4575   */\n      swap1\n      pop\n        /* \"#utility.yul\":4584:4617   */\n      tag_136\n        /* \"#utility.yul\":4612:4616   */\n      dup3\n        /* \"#utility.yul\":4604:4610   */\n      dup3\n        /* \"#utility.yul\":4584:4617   */\n      tag_137\n      jump\t// in\n    tag_136:\n        /* \"#utility.yul\":4494:4623   */\n      swap2\n      swap1\n      pop\n      jump\t// out\n        /* \"#utility.yul\":4629:4704   */\n    tag_135:\n        /* \"#utility.yul\":4662:4668   */\n      0x00\n        /* \"#utility.yul\":4695:4697   */\n      0x40\n        /* \"#utility.yul\":4689:4698   */\n      mload\n        /* \"#utility.yul\":4679:4698   */\n      swap1\n      pop\n        /* \"#utility.yul\":4629:4704   */\n      swap1\n      jump\t// out\n        /* \"#utility.yul\":4710:5018   */\n    tag_64:\n        /* \"#utility.yul\":4772:4776   */\n      0x00\n        /* \"#utility.yul\":4862:4880   */\n      0xffffffffffffffff\n        /* \"#utility.yul\":4854:4860   */\n      dup3\n        /* \"#utility.yul\":4851:4881   */\n      gt\n        /* \"#utility.yul\":4848:4904   */\n      iszero\n      tag_140\n      jumpi\n        /* \"#utility.yul\":4884:4902   */\n      tag_141\n      tag_142\n      jump\t// in\n    tag_141:\n        /* \"#utility.yul\":4848:4904   */\n    tag_140:\n        /* \"#utility.yul\":4922:4951   */\n      tag_143\n        /* \"#utility.yul\":4944:4950   */\n      dup3\n        /* \"#utility.yul\":4922:4951   */\n      tag_118\n      jump\t// in\n    tag_143:\n        /* \"#utility.yul\":4914:4951   */\n      swap1\n      pop\n        /* \"#utility.yul\":5006:5010   */\n      0x20\n        /* \"#utility.yul\":5000:5004   */\n      dup2\n        /* \"#utility.yul\":4996:5011   */\n      add\n        /* \"#utility.yul\":4988:5011   */\n      swap1\n      pop\n        /* \"#utility.yul\":4710:5018   */\n      swap2\n      swap1\n      pop\n      jump\t// out\n        /* \"#utility.yul\":5024:5123   */\n    tag_112:\n        /* \"#utility.yul\":5076:5082   */\n      0x00\n        /* \"#utility.yul\":5110:5115   */\n      dup2\n        /* \"#utility.yul\":5104:5116   */\n      mload\n        /* \"#utility.yul\":5094:5116   */\n      swap1\n      pop\n        /* \"#utility.yul\":5024:5123   */\n      swap2\n      swap1\n      pop\n      jump\t// out\n        /* \"#utility.yul\":5129:5298   */\n    tag_114:\n        /* \"#utility.yul\":5213:5224   */\n      0x00\n        /* \"#utility.yul\":5247:5253   */\n      dup3\n        /* \"#utility.yul\":5242:5245   */\n      dup3\n        /* \"#utility.yul\":5235:5254   */\n      mstore\n        /* \"#utility.yul\":5287:5291   */\n      0x20\n        /* \"#utility.yul\":5282:5285   */\n      dup3\n        /* \"#utility.yul\":5278:5292   */\n      add\n        /* \"#utility.yul\":5263:5292   */\n      swap1\n      pop\n        /* \"#utility.yul\":5129:5298   */\n      swap3\n      swap2\n      pop\n      pop\n      jump\t// out\n        /* \"#utility.yul\":5304:5609   */\n    tag_37:\n        /* \"#utility.yul\":5344:5347   */\n      0x00\n        /* \"#utility.yul\":5363:5383   */\n      tag_147\n        /* \"#utility.yul\":5381:5382   */\n      dup3\n        /* \"#utility.yul\":5363:5383   */\n      tag_122\n      jump\t// in\n    tag_147:\n        /* \"#utility.yul\":5358:5383   */\n      swap2\n      pop\n        /* \"#utility.yul\":5397:5417   */\n      tag_148\n        /* \"#utility.yul\":5415:5416   */\n      dup4\n        /* \"#utility.yul\":5397:5417   */\n      tag_122\n      jump\t// in\n    tag_148:\n        /* \"#utility.yul\":5392:5417   */\n      swap3\n      pop\n        /* \"#utility.yul\":5551:5552   */\n      dup3\n        /* \"#utility.yul\":5483:5549   */\n      0xffffffffffffffffffffffffffffffffffffffffffffffffffffffffffffffff\n        /* \"#utility.yul\":5479:5553   */\n      sub\n        /* \"#utility.yul\":5476:5477   */\n      dup3\n        /* \"#utility.yul\":5473:5554   */\n      gt\n        /* \"#utility.yul\":5470:5577   */\n      iszero\n      tag_149\n      jumpi\n        /* \"#utility.yul\":5557:5575   */\n      tag_150\n      tag_151\n      jump\t// in\n    tag_150:\n        /* \"#utility.yul\":5470:5577   */\n    tag_149:\n        /* \"#utility.yul\":5601:5602   */\n      dup3\n        /* \"#utility.yul\":5598:5599   */\n      dup3\n        /* \"#utility.yul\":5594:5603   */\n      add\n        /* \"#utility.yul\":5587:5603   */\n      swap1\n      pop\n        /* \"#utility.yul\":5304:5609   */\n      swap3\n      swap2\n      pop\n      pop\n      jump\t// out\n        /* \"#utility.yul\":5615:5711   */\n    tag_104:\n        /* \"#utility.yul\":5652:5659   */\n      0x00\n        /* \"#utility.yul\":5681:5705   */\n      tag_153\n        /* \"#utility.yul\":5699:5704   */\n      dup3\n        /* \"#utility.yul\":5681:5705   */\n      tag_154\n      jump\t// in\n    tag_153:\n        /* \"#utility.yul\":5670:5705   */\n      swap1\n      pop\n        /* \"#utility.yul\":5615:5711   */\n      swap2\n      swap1\n      pop\n      jump\t// out\n        /* \"#utility.yul\":5717:5844   */\n    tag_155:\n        /* \"#utility.yul\":5762:5769   */\n      0x00\n        /* \"#utility.yul\":5791:5796   */\n      dup2\n        /* \"#utility.yul\":5780:5796   */\n      swap1\n      pop\n        /* \"#utility.yul\":5797:5838   */\n      tag_157\n        /* \"#utility.yul\":5832:5837   */\n      dup3\n        /* \"#utility.yul\":5797:5838   */\n      tag_158\n      jump\t// in\n    tag_157:\n        /* \"#utility.yul\":5717:5844   */\n      swap2\n      swap1\n      pop\n      jump\t// out\n        /* \"#utility.yul\":5850:5976   */\n    tag_154:\n        /* \"#utility.yul\":5887:5894   */\n      0x00\n        /* \"#utility.yul\":5927:5969   */\n      0xffffffffffffffffffffffffffffffffffffffff\n        /* \"#utility.yul\":5920:5925   */\n      dup3\n        /* \"#utility.yul\":5916:5970   */\n      and\n        /* \"#utility.yul\":5905:5970   */\n      swap1\n      pop\n        /* \"#utility.yul\":5850:5976   */\n      swap2\n      swap1\n      pop\n      jump\t// out\n        /* \"#utility.yul\":5982:6059   */\n    tag_122:\n        /* \"#utility.yul\":6019:6026   */\n      0x00\n        /* \"#utility.yul\":6048:6053   */\n      dup2\n        /* \"#utility.yul\":6037:6053   */\n      swap1\n      pop\n        /* \"#utility.yul\":5982:6059   */\n      swap2\n      swap1\n      pop\n      jump\t// out\n        /* \"#utility.yul\":6065:6192   */\n    tag_108:\n        /* \"#utility.yul\":6121:6130   */\n      0x00\n        /* \"#utility.yul\":6154:6186   */\n      tag_162\n        /* \"#utility.yul\":6180:6185   */\n      dup3\n        /* \"#utility.yul\":6154:6186   */\n      tag_155\n      jump\t// in\n    tag_162:\n        /* \"#utility.yul\":6141:6186   */\n      swap1\n      pop\n        /* \"#utility.yul\":6065:6192   */\n      swap2\n      swap1\n      pop\n      jump\t// out\n        /* \"#utility.yul\":6198:6352   */\n    tag_70:\n        /* \"#utility.yul\":6282:6288   */\n      dup3\n        /* \"#utility.yul\":6277:6280   */\n      dup2\n        /* \"#utility.yul\":6272:6275   */\n      dup4\n        /* \"#utility.yul\":6259:6289   */\n      calldatacopy\n        /* \"#utility.yul\":6344:6345   */\n      0x00\n        /* \"#utility.yul\":6335:6341   */\n      dup4\n        /* \"#utility.yul\":6330:6333   */\n      dup4\n        /* \"#utility.yul\":6326:6342   */\n      add\n        /* \"#utility.yul\":6319:6346   */\n      mstore\n        /* \"#utility.yul\":6198:6352   */\n      pop\n      pop\n      pop\n      jump\t// out\n        /* \"#utility.yul\":6358:6665   */\n    tag_116:\n        /* \"#utility.yul\":6426:6427   */\n      0x00\n        /* \"#utility.yul\":6436:6549   */\n    tag_165:\n        /* \"#utility.yul\":6450:6456   */\n      dup4\n        /* \"#utility.yul\":6447:6448   */\n      dup2\n        /* \"#utility.yul\":6444:6457   */\n      lt\n        /* \"#utility.yul\":6436:6549   */\n      iszero\n      tag_167\n      jumpi\n        /* \"#utility.yul\":6535:6536   */\n      dup1\n        /* \"#utility.yul\":6530:6533   */\n      dup3\n        /* \"#utility.yul\":6526:6537   */\n      add\n        /* \"#utility.yul\":6520:6538   */\n      mload\n        /* \"#utility.yul\":6516:6517   */\n      dup2\n        /* \"#utility.yul\":6511:6514   */\n      dup5\n        /* \"#utility.yul\":6507:6518   */\n      add\n        /* \"#utility.yul\":6500:6539   */\n      mstore\n        /* \"#utility.yul\":6472:6474   */\n      0x20\n        /* \"#utility.yul\":6469:6470   */\n      dup2\n        /* \"#utility.yul\":6465:6475   */\n      add\n        /* \"#utility.yul\":6460:6475   */\n      swap1\n      pop\n        /* \"#utility.yul\":6436:6549   */\n      jump(tag_165)\n    tag_167:\n        /* \"#utility.yul\":6567:6573   */\n      dup4\n        /* \"#utility.yul\":6564:6565   */\n      dup2\n        /* \"#utility.yul\":6561:6574   */\n      gt\n        /* \"#utility.yul\":6558:6659   */\n      iszero\n      tag_168\n      jumpi\n        /* \"#utility.yul\":6647:6648   */\n      0x00\n        /* \"#utility.yul\":6638:6644   */\n      dup5\n        /* \"#utility.yul\":6633:6636   */\n      dup5\n        /* \"#utility.yul\":6629:6645   */\n      add\n        /* \"#utility.yul\":6622:6649   */\n      mstore\n        /* \"#utility.yul\":6558:6659   */\n    tag_168:\n        /* \"#utility.yul\":6407:6665   */\n      pop\n        /* \"#utility.yul\":6358:6665   */\n      pop\n      pop\n      pop\n      jump\t// out\n        /* \"#utility.yul\":6671:6991   */\n    tag_39:\n        /* \"#utility.yul\":6715:6721   */\n      0x00\n        /* \"#utility.yul\":6752:6753   */\n      0x02\n        /* \"#utility.yul\":6746:6750   */\n      dup3\n        /* \"#utility.yul\":6742:6754   */\n      div\n        /* \"#utility.yul\":6732:6754   */\n      swap1\n      pop\n        /* \"#utility.yul\":6799:6800   */\n      0x01\n        /* \"#utility.yul\":6793:6797   */\n      dup3\n        /* \"#utility.yul\":6789:6801   */\n      and\n        /* \"#utility.yul\":6820:6838   */\n      dup1\n        /* \"#utility.yul\":6810:6891   */\n      tag_170\n      jumpi\n        /* \"#utility.yul\":6876:6880   */\n      0x7f\n        /* \"#utility.yul\":6868:6874   */\n      dup3\n        /* \"#utility.yul\":6864:6881   */\n      and\n        /* \"#utility.yul\":6854:6881   */\n      swap2\n      pop\n        /* \"#utility.yul\":6810:6891   */\n    tag_170:\n        /* \"#utility.yul\":6938:6940   */\n      0x20\n        /* \"#utility.yul\":6930:6936   */\n      dup3\n        /* \"#utility.yul\":6927:6941   */\n      lt\n        /* \"#utility.yul\":6907:6925   */\n      dup2\n        /* \"#utility.yul\":6904:6942   */\n      eq\n        /* \"#utility.yul\":6901:6985   */\n      iszero\n      tag_171\n      jumpi\n        /* \"#utility.yul\":6957:6975   */\n      tag_172\n      tag_173\n      jump\t// in\n    tag_172:\n        /* \"#utility.yul\":6901:6985   */\n    tag_171:\n        /* \"#utility.yul\":6722:6991   */\n      pop\n        /* \"#utility.yul\":6671:6991   */\n      swap2\n      swap1\n      pop\n      jump\t// out\n        /* \"#utility.yul\":6997:7278   */\n    tag_137:\n        /* \"#utility.yul\":7080:7107   */\n      tag_175\n        /* \"#utility.yul\":7102:7106   */\n      dup3\n        /* \"#utility.yul\":7080:7107   */\n      tag_118\n      jump\t// in\n    tag_175:\n        /* \"#utility.yul\":7072:7078   */\n      dup2\n        /* \"#utility.yul\":7068:7108   */\n      add\n        /* \"#utility.yul\":7210:7216   */\n      dup2\n        /* \"#utility.yul\":7198:7208   */\n      dup2\n        /* \"#utility.yul\":7195:7217   */\n      lt\n        /* \"#utility.yul\":7174:7192   */\n      0xffffffffffffffff\n        /* \"#utility.yul\":7162:7172   */\n      dup3\n        /* \"#utility.yul\":7159:7193   */\n      gt\n        /* \"#utility.yul\":7156:7218   */\n      or\n        /* \"#utility.yul\":7153:7241   */\n      iszero\n      tag_176\n      jumpi\n        /* \"#utility.yul\":7221:7239   */\n      tag_177\n      tag_142\n      jump\t// in\n    tag_177:\n        /* \"#utility.yul\":7153:7241   */\n    tag_176:\n        /* \"#utility.yul\":7261:7271   */\n      dup1\n        /* \"#utility.yul\":7257:7259   */\n      0x40\n        /* \"#utility.yul\":7250:7272   */\n      mstore\n        /* \"#utility.yul\":7040:7278   */\n      pop\n        /* \"#utility.yul\":6997:7278   */\n      pop\n      pop\n      jump\t// out\n        /* \"#utility.yul\":7284:7464   */\n    tag_151:\n        /* \"#utility.yul\":7332:7409   */\n      0x4e487b7100000000000000000000000000000000000000000000000000000000\n        /* \"#utility.yul\":7329:7330   */\n      0x00\n        /* \"#utility.yul\":7322:7410   */\n      mstore\n        /* \"#utility.yul\":7429:7433   */\n      0x11\n        /* \"#utility.yul\":7426:7427   */\n      0x04\n        /* \"#utility.yul\":7419:7434   */\n      mstore\n        /* \"#utility.yul\":7453:7457   */\n      0x24\n        /* \"#utility.yul\":7450:7451   */\n      0x00\n        /* \"#utility.yul\":7443:7458   */\n      revert\n        /* \"#utility.yul\":7470:7650   */\n    tag_30:\n        /* \"#utility.yul\":7518:7595   */\n      0x4e487b7100000000000000000000000000000000000000000000000000000000\n        /* \"#utility.yul\":7515:7516   */\n      0x00\n        /* \"#utility.yul\":7508:7596   */\n      mstore\n        /* \"#utility.yul\":7615:7619   */\n      0x21\n        /* \"#utility.yul\":7612:7613   */\n      0x04\n        /* \"#utility.yul\":7605:7620   */\n      mstore\n        /* \"#utility.yul\":7639:7643   */\n      0x24\n        /* \"#utility.yul\":7636:7637   */\n      0x00\n        /* \"#utility.yul\":7629:7644   */\n      revert\n        /* \"#utility.yul\":7656:7836   */\n    tag_173:\n        /* \"#utility.yul\":7704:7781   */\n      0x4e487b7100000000000000000000000000000000000000000000000000000000\n        /* \"#utility.yul\":7701:7702   */\n      0x00\n        /* \"#utility.yul\":7694:7782   */\n      mstore\n        /* \"#utility.yul\":7801:7805   */\n      0x22\n        /* \"#utility.yul\":7798:7799   */\n      0x04\n        /* \"#utility.yul\":7791:7806   */\n      mstore\n        /* \"#utility.yul\":7825:7829   */\n      0x24\n        /* \"#utility.yul\":7822:7823   */\n      0x00\n        /* \"#utility.yul\":7815:7830   */\n      revert\n        /* \"#utility.yul\":7842:8022   */\n    tag_142:\n        /* \"#utility.yul\":7890:7967   */\n      0x4e487b7100000000000000000000000000000000000000000000000000000000\n        /* \"#utility.yul\":7887:7888   */\n      0x00\n        /* \"#utility.yul\":7880:7968   */\n      mstore\n        /* \"#utility.yul\":7987:7991   */\n      0x41\n        /* \"#utility.yul\":7984:7985   */\n      0x04\n        /* \"#utility.yul\":7977:7992   */\n      mstore\n        /* \"#utility.yul\":8011:8015   */\n      0x24\n        /* \"#utility.yul\":8008:8009   */\n      0x00\n        /* \"#utility.yul\":8001:8016   */\n      revert\n        /* \"#utility.yul\":8028:8145   */\n    tag_79:\n        /* \"#utility.yul\":8137:8138   */\n      0x00\n        /* \"#utility.yul\":8134:8135   */\n      dup1\n        /* \"#utility.yul\":8127:8139   */\n      revert\n        /* \"#utility.yul\":8151:8268   */\n    tag_68:\n        /* \"#utility.yul\":8260:8261   */\n      0x00\n        /* \"#utility.yul\":8257:8258   */\n      dup1\n        /* \"#utility.yul\":8250:8262   */\n      revert\n        /* \"#utility.yul\":8274:8391   */\n    tag_95:\n        /* \"#utility.yul\":8383:8384   */\n      0x00\n        /* \"#utility.yul\":8380:8381   */\n      dup1\n        /* \"#utility.yul\":8373:8385   */\n      revert\n        /* \"#utility.yul\":8397:8514   */\n    tag_88:\n        /* \"#utility.yul\":8506:8507   */\n      0x00\n        /* \"#utility.yul\":8503:8504   */\n      dup1\n        /* \"#utility.yul\":8496:8508   */\n      revert\n        /* \"#utility.yul\":8520:8622   */\n    tag_118:\n        /* \"#utility.yul\":8561:8567   */\n      0x00\n        /* \"#utility.yul\":8612:8614   */\n      0x1f\n        /* \"#utility.yul\":8608:8615   */\n      not\n        /* \"#utility.yul\":8603:8605   */\n      0x1f\n        /* \"#utility.yul\":8596:8601   */\n      dup4\n        /* \"#utility.yul\":8592:8606   */\n      add\n        /* \"#utility.yul\":8588:8616   */\n      and\n        /* \"#utility.yul\":8578:8616   */\n      swap1\n      pop\n        /* \"#utility.yul\":8520:8622   */\n      swap2\n      swap1\n      pop\n      jump\t// out\n        /* \"#utility.yul\":8628:8741   */\n    tag_158:\n        /* \"#utility.yul\":8709:8710   */\n      0x03\n        /* \"#utility.yul\":8702:8707   */\n      dup2\n        /* \"#utility.yul\":8699:8711   */\n      lt\n        /* \"#utility.yul\":8689:8735   */\n      tag_188\n      jumpi\n        /* \"#utility.yul\":8715:8733   */\n      tag_189\n      tag_30\n      jump\t// in\n    tag_189:\n        /* \"#utility.yul\":8689:8735   */\n    tag_188:\n        /* \"#utility.yul\":8628:8741   */\n      pop\n      jump\t// out\n        /* \"#utility.yul\":8747:8869   */\n    tag_74:\n        /* \"#utility.yul\":8820:8844   */\n      tag_191\n        /* \"#utility.yul\":8838:8843   */\n      dup2\n        /* \"#utility.yul\":8820:8844   */\n      tag_104\n      jump\t// in\n    tag_191:\n        /* \"#utility.yul\":8813:8818   */\n      dup2\n        /* \"#utility.yul\":8810:8845   */\n      eq\n        /* \"#utility.yul\":8800:8863   */\n      tag_192\n      jumpi\n        /* \"#utility.yul\":8859:8860   */\n      0x00\n        /* \"#utility.yul\":8856:8857   */\n      dup1\n        /* \"#utility.yul\":8849:8861   */\n      revert\n        /* \"#utility.yul\":8800:8863   */\n    tag_192:\n        /* \"#utility.yul\":8747:8869   */\n      pop\n      jump\t// out\n        /* \"#utility.yul\":8875:8997   */\n    tag_84:\n        /* \"#utility.yul\":8948:8972   */\n      tag_194\n        /* \"#utility.yul\":8966:8971   */\n      dup2\n        /* \"#utility.yul\":8948:8972   */\n      tag_122\n      jump\t// in\n    tag_194:\n        /* \"#utility.yul\":8941:8946   */\n      dup2\n        /* \"#utility.yul\":8938:8973   */\n      eq\n        /* \"#utility.yul\":8928:8991   */\n      tag_195\n      jumpi\n        /* \"#utility.yul\":8987:8988   */\n      0x00\n        /* \"#utility.yul\":8984:8985   */\n      dup1\n        /* \"#utility.yul\":8977:8989   */\n      revert\n        /* \"#utility.yul\":8928:8991   */\n    tag_195:\n        /* \"#utility.yul\":8875:8997   */\n      pop\n      jump\t// out\n\n    auxdata: 0xa2646970667358221220f1d9bd2b41d51c77178c768aad6437f46c0c0f7a24664c3fb6fd60fb7360550464736f6c63430008070033\n}\n",
				"bytecode": {
					"linkReferences": {},
					"object": "60806040526000805534801561001457600080fd5b50610a45806100246000396000f3fe608060405234801561001057600080fd5b506004361061004c5760003560e01c806334b735a114610051578063aaa006b214610081578063aab48c521461009f578063e2eb41ff146100bb575b600080fd5b61006b60048036038101906100669190610569565b6100ef565b60405161007891906106e8565b60405180910390f35b610089610148565b6040516100969190610703565b60405180910390f35b6100b960048036038101906100b49190610596565b61014e565b005b6100d560048036038101906100d09190610569565b6102b9565b6040516100e6959493929190610687565b60405180910390f35b6000600160008373ffffffffffffffffffffffffffffffffffffffff1673ffffffffffffffffffffffffffffffffffffffff16815260200190815260200160002060020160009054906101000a900460ff169050919050565b60005481565b6040518060a001604052803373ffffffffffffffffffffffffffffffffffffffff1681526020018481526020016000600281111561018f5761018e61091b565b5b815260200183815260200182815250600160003373ffffffffffffffffffffffffffffffffffffffff1673ffffffffffffffffffffffffffffffffffffffff16815260200190815260200160002060008201518160000160006101000a81548173ffffffffffffffffffffffffffffffffffffffff021916908373ffffffffffffffffffffffffffffffffffffffff160217905550602082015181600101908051906020019061024092919061042c565b5060408201518160020160006101000a81548160ff0219169083600281111561026c5761026b61091b565b5b021790555060608201518160030155608082015181600401908051906020019061029792919061042c565b5090505060016000808282546102ad9190610790565b92505081905550505050565b60016020528060005260406000206000915090508060000160009054906101000a900473ffffffffffffffffffffffffffffffffffffffff169080600101805461030290610889565b80601f016020809104026020016040519081016040528092919081815260200182805461032e90610889565b801561037b5780601f106103505761010080835404028352916020019161037b565b820191906000526020600020905b81548152906001019060200180831161035e57829003601f168201915b5050505050908060020160009054906101000a900460ff16908060030154908060040180546103a990610889565b80601f01602080910402602001604051908101604052809291908181526020018280546103d590610889565b80156104225780601f106103f757610100808354040283529160200191610422565b820191906000526020600020905b81548152906001019060200180831161040557829003601f168201915b5050505050905085565b82805461043890610889565b90600052602060002090601f01602090048101928261045a57600085556104a1565b82601f1061047357805160ff19168380011785556104a1565b828001600101855582156104a1579182015b828111156104a0578251825591602001919060010190610485565b5b5090506104ae91906104b2565b5090565b5b808211156104cb5760008160009055506001016104b3565b5090565b60006104e26104dd84610743565b61071e565b9050828152602081018484840111156104fe576104fd6109ad565b5b610509848285610847565b509392505050565b600081359050610520816109e1565b92915050565b600082601f83011261053b5761053a6109a8565b5b813561054b8482602086016104cf565b91505092915050565b600081359050610563816109f8565b92915050565b60006020828403121561057f5761057e6109b7565b5b600061058d84828501610511565b91505092915050565b6000806000606084860312156105af576105ae6109b7565b5b600084013567ffffffffffffffff8111156105cd576105cc6109b2565b5b6105d986828701610526565b93505060206105ea86828701610554565b925050604084013567ffffffffffffffff81111561060b5761060a6109b2565b5b61061786828701610526565b9150509250925092565b61062a816107e6565b82525050565b61063981610835565b82525050565b600061064a82610774565b610654818561077f565b9350610664818560208601610856565b61066d816109bc565b840191505092915050565b6106818161082b565b82525050565b600060a08201905061069c6000830188610621565b81810360208301526106ae818761063f565b90506106bd6040830186610630565b6106ca6060830185610678565b81810360808301526106dc818461063f565b90509695505050505050565b60006020820190506106fd6000830184610630565b92915050565b60006020820190506107186000830184610678565b92915050565b6000610728610739565b905061073482826108bb565b919050565b6000604051905090565b600067ffffffffffffffff82111561075e5761075d610979565b5b610767826109bc565b9050602081019050919050565b600081519050919050565b600082825260208201905092915050565b600061079b8261082b565b91506107a68361082b565b9250827fffffffffffffffffffffffffffffffffffffffffffffffffffffffffffffffff038211156107db576107da6108ec565b5b828201905092915050565b60006107f18261080b565b9050919050565b6000819050610806826109cd565b919050565b600073ffffffffffffffffffffffffffffffffffffffff82169050919050565b6000819050919050565b6000610840826107f8565b9050919050565b82818337600083830152505050565b60005b83811015610874578082015181840152602081019050610859565b83811115610883576000848401525b50505050565b600060028204905060018216806108a157607f821691505b602082108114156108b5576108b461094a565b5b50919050565b6108c4826109bc565b810181811067ffffffffffffffff821117156108e3576108e2610979565b5b80604052505050565b7f4e487b7100000000000000000000000000000000000000000000000000000000600052601160045260246000fd5b7f4e487b7100000000000000000000000000000000000000000000000000000000600052602160045260246000fd5b7f4e487b7100000000000000000000000000000000000000000000000000000000600052602260045260246000fd5b7f4e487b7100000000000000000000000000000000000000000000000000000000600052604160045260246000fd5b600080fd5b600080fd5b600080fd5b600080fd5b6000601f19601f8301169050919050565b600381106109de576109dd61091b565b5b50565b6109ea816107e6565b81146109f557600080fd5b50565b610a018161082b565b8114610a0c57600080fd5b5056fea2646970667358221220f1d9bd2b41d51c77178c768aad6437f46c0c0f7a24664c3fb6fd60fb7360550464736f6c63430008070033",
					"opcodes": "PUSH1 0x80 PUSH1 0x40 MSTORE PUSH1 0x0 DUP1 SSTORE CALLVALUE DUP1 ISZERO PUSH2 0x14 JUMPI PUSH1 0x0 DUP1 REVERT JUMPDEST POP PUSH2 0xA45 DUP1 PUSH2 0x24 PUSH1 0x0 CODECOPY PUSH1 0x0 RETURN INVALID PUSH1 0x80 PUSH1 0x40 MSTORE CALLVALUE DUP1 ISZERO PUSH2 0x10 JUMPI PUSH1 0x0 DUP1 REVERT JUMPDEST POP PUSH1 0x4 CALLDATASIZE LT PUSH2 0x4C JUMPI PUSH1 0x0 CALLDATALOAD PUSH1 0xE0 SHR DUP1 PUSH4 0x34B735A1 EQ PUSH2 0x51 JUMPI DUP1 PUSH4 0xAAA006B2 EQ PUSH2 0x81 JUMPI DUP1 PUSH4 0xAAB48C52 EQ PUSH2 0x9F JUMPI DUP1 PUSH4 0xE2EB41FF EQ PUSH2 0xBB JUMPI JUMPDEST PUSH1 0x0 DUP1 REVERT JUMPDEST PUSH2 0x6B PUSH1 0x4 DUP1 CALLDATASIZE SUB DUP2 ADD SWAP1 PUSH2 0x66 SWAP2 SWAP1 PUSH2 0x569 JUMP JUMPDEST PUSH2 0xEF JUMP JUMPDEST PUSH1 0x40 MLOAD PUSH2 0x78 SWAP2 SWAP1 PUSH2 0x6E8 JUMP JUMPDEST PUSH1 0x40 MLOAD DUP1 SWAP2 SUB SWAP1 RETURN JUMPDEST PUSH2 0x89 PUSH2 0x148 JUMP JUMPDEST PUSH1 0x40 MLOAD PUSH2 0x96 SWAP2 SWAP1 PUSH2 0x703 JUMP JUMPDEST PUSH1 0x40 MLOAD DUP1 SWAP2 SUB SWAP1 RETURN JUMPDEST PUSH2 0xB9 PUSH1 0x4 DUP1 CALLDATASIZE SUB DUP2 ADD SWAP1 PUSH2 0xB4 SWAP2 SWAP1 PUSH2 0x596 JUMP JUMPDEST PUSH2 0x14E JUMP JUMPDEST STOP JUMPDEST PUSH2 0xD5 PUSH1 0x4 DUP1 CALLDATASIZE SUB DUP2 ADD SWAP1 PUSH2 0xD0 SWAP2 SWAP1 PUSH2 0x569 JUMP JUMPDEST PUSH2 0x2B9 JUMP JUMPDEST PUSH1 0x40 MLOAD PUSH2 0xE6 SWAP6 SWAP5 SWAP4 SWAP3 SWAP2 SWAP1 PUSH2 0x687 JUMP JUMPDEST PUSH1 0x40 MLOAD DUP1 SWAP2 SUB SWAP1 RETURN JUMPDEST PUSH1 0x0 PUSH1 0x1 PUSH1 0x0 DUP4 PUSH20 0xFFFFFFFFFFFFFFFFFFFFFFFFFFFFFFFFFFFFFFFF AND PUSH20 0xFFFFFFFFFFFFFFFFFFFFFFFFFFFFFFFFFFFFFFFF AND DUP2 MSTORE PUSH1 0x20 ADD SWAP1 DUP2 MSTORE PUSH1 0x20 ADD PUSH1 0x0 KECCAK256 PUSH1 0x2 ADD PUSH1 0x0 SWAP1 SLOAD SWAP1 PUSH2 0x100 EXP SWAP1 DIV PUSH1 0xFF AND SWAP1 POP SWAP2 SWAP1 POP JUMP JUMPDEST PUSH1 0x0 SLOAD DUP2 JUMP JUMPDEST PUSH1 0x40 MLOAD DUP1 PUSH1 0xA0 ADD PUSH1 0x40 MSTORE DUP1 CALLER PUSH20 0xFFFFFFFFFFFFFFFFFFFFFFFFFFFFFFFFFFFFFFFF AND DUP2 MSTORE PUSH1 0x20 ADD DUP5 DUP2 MSTORE PUSH1 0x20 ADD PUSH1 0x0 PUSH1 0x2 DUP2 GT ISZERO PUSH2 0x18F JUMPI PUSH2 0x18E PUSH2 0x91B JUMP JUMPDEST JUMPDEST DUP2 MSTORE PUSH1 0x20 ADD DUP4 DUP2 MSTORE PUSH1 0x20 ADD DUP3 DUP2 MSTORE POP PUSH1 0x1 PUSH1 0x0 CALLER PUSH20 0xFFFFFFFFFFFFFFFFFFFFFFFFFFFFFFFFFFFFFFFF AND PUSH20 0xFFFFFFFFFFFFFFFFFFFFFFFFFFFFFFFFFFFFFFFF AND DUP2 MSTORE PUSH1 0x20 ADD SWAP1 DUP2 MSTORE PUSH1 0x20 ADD PUSH1 0x0 KECCAK256 PUSH1 0x0 DUP3 ADD MLOAD DUP2 PUSH1 0x0 ADD PUSH1 0x0 PUSH2 0x100 EXP DUP2 SLOAD DUP2 PUSH20 0xFFFFFFFFFFFFFFFFFFFFFFFFFFFFFFFFFFFFFFFF MUL NOT AND SWAP1 DUP4 PUSH20 0xFFFFFFFFFFFFFFFFFFFFFFFFFFFFFFFFFFFFFFFF AND MUL OR SWAP1 SSTORE POP PUSH1 0x20 DUP3 ADD MLOAD DUP2 PUSH1 0x1 ADD SWAP1 DUP1 MLOAD SWAP1 PUSH1 0x20 ADD SWAP1 PUSH2 0x240 SWAP3 SWAP2 SWAP1 PUSH2 0x42C JUMP JUMPDEST POP PUSH1 0x40 DUP3 ADD MLOAD DUP2 PUSH1 0x2 ADD PUSH1 0x0 PUSH2 0x100 EXP DUP2 SLOAD DUP2 PUSH1 0xFF MUL NOT AND SWAP1 DUP4 PUSH1 0x2 DUP2 GT ISZERO PUSH2 0x26C JUMPI PUSH2 0x26B PUSH2 0x91B JUMP JUMPDEST JUMPDEST MUL OR SWAP1 SSTORE POP PUSH1 0x60 DUP3 ADD MLOAD DUP2 PUSH1 0x3 ADD SSTORE PUSH1 0x80 DUP3 ADD MLOAD DUP2 PUSH1 0x4 ADD SWAP1 DUP1 MLOAD SWAP1 PUSH1 0x20 ADD SWAP1 PUSH2 0x297 SWAP3 SWAP2 SWAP1 PUSH2 0x42C JUMP JUMPDEST POP SWAP1 POP POP PUSH1 0x1 PUSH1 0x0 DUP1 DUP3 DUP3 SLOAD PUSH2 0x2AD SWAP2 SWAP1 PUSH2 0x790 JUMP JUMPDEST SWAP3 POP POP DUP2 SWAP1 SSTORE POP POP POP POP JUMP JUMPDEST PUSH1 0x1 PUSH1 0x20 MSTORE DUP1 PUSH1 0x0 MSTORE PUSH1 0x40 PUSH1 0x0 KECCAK256 PUSH1 0x0 SWAP2 POP SWAP1 POP DUP1 PUSH1 0x0 ADD PUSH1 0x0 SWAP1 SLOAD SWAP1 PUSH2 0x100 EXP SWAP1 DIV PUSH20 0xFFFFFFFFFFFFFFFFFFFFFFFFFFFFFFFFFFFFFFFF AND SWAP1 DUP1 PUSH1 0x1 ADD DUP1 SLOAD PUSH2 0x302 SWAP1 PUSH2 0x889 JUMP JUMPDEST DUP1 PUSH1 0x1F ADD PUSH1 0x20 DUP1 SWAP2 DIV MUL PUSH1 0x20 ADD PUSH1 0x40 MLOAD SWAP1 DUP2 ADD PUSH1 0x40 MSTORE DUP1 SWAP3 SWAP2 SWAP1 DUP2 DUP2 MSTORE PUSH1 0x20 ADD DUP3 DUP1 SLOAD PUSH2 0x32E SWAP1 PUSH2 0x889 JUMP JUMPDEST DUP1 ISZERO PUSH2 0x37B JUMPI DUP1 PUSH1 0x1F LT PUSH2 0x350 JUMPI PUSH2 0x100 DUP1 DUP4 SLOAD DIV MUL DUP4 MSTORE SWAP2 PUSH1 0x20 ADD SWAP2 PUSH2 0x37B JUMP JUMPDEST DUP3 ADD SWAP2 SWAP1 PUSH1 0x0 MSTORE PUSH1 0x20 PUSH1 0x0 KECCAK256 SWAP1 JUMPDEST DUP2 SLOAD DUP2 MSTORE SWAP1 PUSH1 0x1 ADD SWAP1 PUSH1 0x20 ADD DUP1 DUP4 GT PUSH2 0x35E JUMPI DUP3 SWAP1 SUB PUSH1 0x1F AND DUP3 ADD SWAP2 JUMPDEST POP POP POP POP POP SWAP1 DUP1 PUSH1 0x2 ADD PUSH1 0x0 SWAP1 SLOAD SWAP1 PUSH2 0x100 EXP SWAP1 DIV PUSH1 0xFF AND SWAP1 DUP1 PUSH1 0x3 ADD SLOAD SWAP1 DUP1 PUSH1 0x4 ADD DUP1 SLOAD PUSH2 0x3A9 SWAP1 PUSH2 0x889 JUMP JUMPDEST DUP1 PUSH1 0x1F ADD PUSH1 0x20 DUP1 SWAP2 DIV MUL PUSH1 0x20 ADD PUSH1 0x40 MLOAD SWAP1 DUP2 ADD PUSH1 0x40 MSTORE DUP1 SWAP3 SWAP2 SWAP1 DUP2 DUP2 MSTORE PUSH1 0x20 ADD DUP3 DUP1 SLOAD PUSH2 0x3D5 SWAP1 PUSH2 0x889 JUMP JUMPDEST DUP1 ISZERO PUSH2 0x422 JUMPI DUP1 PUSH1 0x1F LT PUSH2 0x3F7 JUMPI PUSH2 0x100 DUP1 DUP4 SLOAD DIV MUL DUP4 MSTORE SWAP2 PUSH1 0x20 ADD SWAP2 PUSH2 0x422 JUMP JUMPDEST DUP3 ADD SWAP2 SWAP1 PUSH1 0x0 MSTORE PUSH1 0x20 PUSH1 0x0 KECCAK256 SWAP1 JUMPDEST DUP2 SLOAD DUP2 MSTORE SWAP1 PUSH1 0x1 ADD SWAP1 PUSH1 0x20 ADD DUP1 DUP4 GT PUSH2 0x405 JUMPI DUP3 SWAP1 SUB PUSH1 0x1F AND DUP3 ADD SWAP2 JUMPDEST POP POP POP POP POP SWAP1 POP DUP6 JUMP JUMPDEST DUP3 DUP1 SLOAD PUSH2 0x438 SWAP1 PUSH2 0x889 JUMP JUMPDEST SWAP1 PUSH1 0x0 MSTORE PUSH1 0x20 PUSH1 0x0 KECCAK256 SWAP1 PUSH1 0x1F ADD PUSH1 0x20 SWAP1 DIV DUP2 ADD SWAP3 DUP3 PUSH2 0x45A JUMPI PUSH1 0x0 DUP6 SSTORE PUSH2 0x4A1 JUMP JUMPDEST DUP3 PUSH1 0x1F LT PUSH2 0x473 JUMPI DUP1 MLOAD PUSH1 0xFF NOT AND DUP4 DUP1 ADD OR DUP6 SSTORE PUSH2 0x4A1 JUMP JUMPDEST DUP3 DUP1 ADD PUSH1 0x1 ADD DUP6 SSTORE DUP3 ISZERO PUSH2 0x4A1 JUMPI SWAP2 DUP3 ADD JUMPDEST DUP3 DUP2 GT ISZERO PUSH2 0x4A0 JUMPI DUP3 MLOAD DUP3 SSTORE SWAP2 PUSH1 0x20 ADD SWAP2 SWAP1 PUSH1 0x1 ADD SWAP1 PUSH2 0x485 JUMP JUMPDEST JUMPDEST POP SWAP1 POP PUSH2 0x4AE SWAP2 SWAP1 PUSH2 0x4B2 JUMP JUMPDEST POP SWAP1 JUMP JUMPDEST JUMPDEST DUP1 DUP3 GT ISZERO PUSH2 0x4CB JUMPI PUSH1 0x0 DUP2 PUSH1 0x0 SWAP1 SSTORE POP PUSH1 0x1 ADD PUSH2 0x4B3 JUMP JUMPDEST POP SWAP1 JUMP JUMPDEST PUSH1 0x0 PUSH2 0x4E2 PUSH2 0x4DD DUP5 PUSH2 0x743 JUMP JUMPDEST PUSH2 0x71E JUMP JUMPDEST SWAP1 POP DUP3 DUP2 MSTORE PUSH1 0x20 DUP2 ADD DUP5 DUP5 DUP5 ADD GT ISZERO PUSH2 0x4FE JUMPI PUSH2 0x4FD PUSH2 0x9AD JUMP JUMPDEST JUMPDEST PUSH2 0x509 DUP5 DUP3 DUP6 PUSH2 0x847 JUMP JUMPDEST POP SWAP4 SWAP3 POP POP POP JUMP JUMPDEST PUSH1 0x0 DUP2 CALLDATALOAD SWAP1 POP PUSH2 0x520 DUP2 PUSH2 0x9E1 JUMP JUMPDEST SWAP3 SWAP2 POP POP JUMP JUMPDEST PUSH1 0x0 DUP3 PUSH1 0x1F DUP4 ADD SLT PUSH2 0x53B JUMPI PUSH2 0x53A PUSH2 0x9A8 JUMP JUMPDEST JUMPDEST DUP2 CALLDATALOAD PUSH2 0x54B DUP5 DUP3 PUSH1 0x20 DUP7 ADD PUSH2 0x4CF JUMP JUMPDEST SWAP2 POP POP SWAP3 SWAP2 POP POP JUMP JUMPDEST PUSH1 0x0 DUP2 CALLDATALOAD SWAP1 POP PUSH2 0x563 DUP2 PUSH2 0x9F8 JUMP JUMPDEST SWAP3 SWAP2 POP POP JUMP JUMPDEST PUSH1 0x0 PUSH1 0x20 DUP3 DUP5 SUB SLT ISZERO PUSH2 0x57F JUMPI PUSH2 0x57E PUSH2 0x9B7 JUMP JUMPDEST JUMPDEST PUSH1 0x0 PUSH2 0x58D DUP5 DUP3 DUP6 ADD PUSH2 0x511 JUMP JUMPDEST SWAP2 POP POP SWAP3 SWAP2 POP POP JUMP JUMPDEST PUSH1 0x0 DUP1 PUSH1 0x0 PUSH1 0x60 DUP5 DUP7 SUB SLT ISZERO PUSH2 0x5AF JUMPI PUSH2 0x5AE PUSH2 0x9B7 JUMP JUMPDEST JUMPDEST PUSH1 0x0 DUP5 ADD CALLDATALOAD PUSH8 0xFFFFFFFFFFFFFFFF DUP2 GT ISZERO PUSH2 0x5CD JUMPI PUSH2 0x5CC PUSH2 0x9B2 JUMP JUMPDEST JUMPDEST PUSH2 0x5D9 DUP7 DUP3 DUP8 ADD PUSH2 0x526 JUMP JUMPDEST SWAP4 POP POP PUSH1 0x20 PUSH2 0x5EA DUP7 DUP3 DUP8 ADD PUSH2 0x554 JUMP JUMPDEST SWAP3 POP POP PUSH1 0x40 DUP5 ADD CALLDATALOAD PUSH8 0xFFFFFFFFFFFFFFFF DUP2 GT ISZERO PUSH2 0x60B JUMPI PUSH2 0x60A PUSH2 0x9B2 JUMP JUMPDEST JUMPDEST PUSH2 0x617 DUP7 DUP3 DUP8 ADD PUSH2 0x526 JUMP JUMPDEST SWAP2 POP POP SWAP3 POP SWAP3 POP SWAP3 JUMP JUMPDEST PUSH2 0x62A DUP2 PUSH2 0x7E6 JUMP JUMPDEST DUP3 MSTORE POP POP JUMP JUMPDEST PUSH2 0x639 DUP2 PUSH2 0x835 JUMP JUMPDEST DUP3 MSTORE POP POP JUMP JUMPDEST PUSH1 0x0 PUSH2 0x64A DUP3 PUSH2 0x774 JUMP JUMPDEST PUSH2 0x654 DUP2 DUP6 PUSH2 0x77F JUMP JUMPDEST SWAP4 POP PUSH2 0x664 DUP2 DUP6 PUSH1 0x20 DUP7 ADD PUSH2 0x856 JUMP JUMPDEST PUSH2 0x66D DUP2 PUSH2 0x9BC JUMP JUMPDEST DUP5 ADD SWAP2 POP POP SWAP3 SWAP2 POP POP JUMP JUMPDEST PUSH2 0x681 DUP2 PUSH2 0x82B JUMP JUMPDEST DUP3 MSTORE POP POP JUMP JUMPDEST PUSH1 0x0 PUSH1 0xA0 DUP3 ADD SWAP1 POP PUSH2 0x69C PUSH1 0x0 DUP4 ADD DUP9 PUSH2 0x621 JUMP JUMPDEST DUP2 DUP2 SUB PUSH1 0x20 DUP4 ADD MSTORE PUSH2 0x6AE DUP2 DUP8 PUSH2 0x63F JUMP JUMPDEST SWAP1 POP PUSH2 0x6BD PUSH1 0x40 DUP4 ADD DUP7 PUSH2 0x630 JUMP JUMPDEST PUSH2 0x6CA PUSH1 0x60 DUP4 ADD DUP6 PUSH2 0x678 JUMP JUMPDEST DUP2 DUP2 SUB PUSH1 0x80 DUP4 ADD MSTORE PUSH2 0x6DC DUP2 DUP5 PUSH2 0x63F JUMP JUMPDEST SWAP1 POP SWAP7 SWAP6 POP POP POP POP POP POP JUMP JUMPDEST PUSH1 0x0 PUSH1 0x20 DUP3 ADD SWAP1 POP PUSH2 0x6FD PUSH1 0x0 DUP4 ADD DUP5 PUSH2 0x630 JUMP JUMPDEST SWAP3 SWAP2 POP POP JUMP JUMPDEST PUSH1 0x0 PUSH1 0x20 DUP3 ADD SWAP1 POP PUSH2 0x718 PUSH1 0x0 DUP4 ADD DUP5 PUSH2 0x678 JUMP JUMPDEST SWAP3 SWAP2 POP POP JUMP JUMPDEST PUSH1 0x0 PUSH2 0x728 PUSH2 0x739 JUMP JUMPDEST SWAP1 POP PUSH2 0x734 DUP3 DUP3 PUSH2 0x8BB JUMP JUMPDEST SWAP2 SWAP1 POP JUMP JUMPDEST PUSH1 0x0 PUSH1 0x40 MLOAD SWAP1 POP SWAP1 JUMP JUMPDEST PUSH1 0x0 PUSH8 0xFFFFFFFFFFFFFFFF DUP3 GT ISZERO PUSH2 0x75E JUMPI PUSH2 0x75D PUSH2 0x979 JUMP JUMPDEST JUMPDEST PUSH2 0x767 DUP3 PUSH2 0x9BC JUMP JUMPDEST SWAP1 POP PUSH1 0x20 DUP2 ADD SWAP1 POP SWAP2 SWAP1 POP JUMP JUMPDEST PUSH1 0x0 DUP2 MLOAD SWAP1 POP SWAP2 SWAP1 POP JUMP JUMPDEST PUSH1 0x0 DUP3 DUP3 MSTORE PUSH1 0x20 DUP3 ADD SWAP1 POP SWAP3 SWAP2 POP POP JUMP JUMPDEST PUSH1 0x0 PUSH2 0x79B DUP3 PUSH2 0x82B JUMP JUMPDEST SWAP2 POP PUSH2 0x7A6 DUP4 PUSH2 0x82B JUMP JUMPDEST SWAP3 POP DUP3 PUSH32 0xFFFFFFFFFFFFFFFFFFFFFFFFFFFFFFFFFFFFFFFFFFFFFFFFFFFFFFFFFFFFFFFF SUB DUP3 GT ISZERO PUSH2 0x7DB JUMPI PUSH2 0x7DA PUSH2 0x8EC JUMP JUMPDEST JUMPDEST DUP3 DUP3 ADD SWAP1 POP SWAP3 SWAP2 POP POP JUMP JUMPDEST PUSH1 0x0 PUSH2 0x7F1 DUP3 PUSH2 0x80B JUMP JUMPDEST SWAP1 POP SWAP2 SWAP1 POP JUMP JUMPDEST PUSH1 0x0 DUP2 SWAP1 POP PUSH2 0x806 DUP3 PUSH2 0x9CD JUMP JUMPDEST SWAP2 SWAP1 POP JUMP JUMPDEST PUSH1 0x0 PUSH20 0xFFFFFFFFFFFFFFFFFFFFFFFFFFFFFFFFFFFFFFFF DUP3 AND SWAP1 POP SWAP2 SWAP1 POP JUMP JUMPDEST PUSH1 0x0 DUP2 SWAP1 POP SWAP2 SWAP1 POP JUMP JUMPDEST PUSH1 0x0 PUSH2 0x840 DUP3 PUSH2 0x7F8 JUMP JUMPDEST SWAP1 POP SWAP2 SWAP1 POP JUMP JUMPDEST DUP3 DUP2 DUP4 CALLDATACOPY PUSH1 0x0 DUP4 DUP4 ADD MSTORE POP POP POP JUMP JUMPDEST PUSH1 0x0 JUMPDEST DUP4 DUP2 LT ISZERO PUSH2 0x874 JUMPI DUP1 DUP3 ADD MLOAD DUP2 DUP5 ADD MSTORE PUSH1 0x20 DUP2 ADD SWAP1 POP PUSH2 0x859 JUMP JUMPDEST DUP4 DUP2 GT ISZERO PUSH2 0x883 JUMPI PUSH1 0x0 DUP5 DUP5 ADD MSTORE JUMPDEST POP POP POP POP JUMP JUMPDEST PUSH1 0x0 PUSH1 0x2 DUP3 DIV SWAP1 POP PUSH1 0x1 DUP3 AND DUP1 PUSH2 0x8A1 JUMPI PUSH1 0x7F DUP3 AND SWAP2 POP JUMPDEST PUSH1 0x20 DUP3 LT DUP2 EQ ISZERO PUSH2 0x8B5 JUMPI PUSH2 0x8B4 PUSH2 0x94A JUMP JUMPDEST JUMPDEST POP SWAP2 SWAP1 POP JUMP JUMPDEST PUSH2 0x8C4 DUP3 PUSH2 0x9BC JUMP JUMPDEST DUP2 ADD DUP2 DUP2 LT PUSH8 0xFFFFFFFFFFFFFFFF DUP3 GT OR ISZERO PUSH2 0x8E3 JUMPI PUSH2 0x8E2 PUSH2 0x979 JUMP JUMPDEST JUMPDEST DUP1 PUSH1 0x40 MSTORE POP POP POP JUMP JUMPDEST PUSH32 0x4E487B7100000000000000000000000000000000000000000000000000000000 PUSH1 0x0 MSTORE PUSH1 0x11 PUSH1 0x4 MSTORE PUSH1 0x24 PUSH1 0x0 REVERT JUMPDEST PUSH32 0x4E487B7100000000000000000000000000000000000000000000000000000000 PUSH1 0x0 MSTORE PUSH1 0x21 PUSH1 0x4 MSTORE PUSH1 0x24 PUSH1 0x0 REVERT JUMPDEST PUSH32 0x4E487B7100000000000000000000000000000000000000000000000000000000 PUSH1 0x0 MSTORE PUSH1 0x22 PUSH1 0x4 MSTORE PUSH1 0x24 PUSH1 0x0 REVERT JUMPDEST PUSH32 0x4E487B7100000000000000000000000000000000000000000000000000000000 PUSH1 0x0 MSTORE PUSH1 0x41 PUSH1 0x4 MSTORE PUSH1 0x24 PUSH1 0x0 REVERT JUMPDEST PUSH1 0x0 DUP1 REVERT JUMPDEST PUSH1 0x0 DUP1 REVERT JUMPDEST PUSH1 0x0 DUP1 REVERT JUMPDEST PUSH1 0x0 DUP1 REVERT JUMPDEST PUSH1 0x0 PUSH1 0x1F NOT PUSH1 0x1F DUP4 ADD AND SWAP1 POP SWAP2 SWAP1 POP JUMP JUMPDEST PUSH1 0x3 DUP2 LT PUSH2 0x9DE JUMPI PUSH2 0x9DD PUSH2 0x91B JUMP JUMPDEST JUMPDEST POP JUMP JUMPDEST PUSH2 0x9EA DUP2 PUSH2 0x7E6 JUMP JUMPDEST DUP2 EQ PUSH2 0x9F5 JUMPI PUSH1 0x0 DUP1 REVERT JUMPDEST POP JUMP JUMPDEST PUSH2 0xA01 DUP2 PUSH2 0x82B JUMP JUMPDEST DUP2 EQ PUSH2 0xA0C JUMPI PUSH1 0x0 DUP1 REVERT JUMPDEST POP JUMP INVALID LOG2 PUSH5 0x6970667358 0x22 SLT KECCAK256 CALL 0xD9 0xBD 0x2B COINBASE 0xD5 SHR PUSH24 0x178C768AAD6437F46C0C0F7A24664C3FB6FD60FB73605504 PUSH5 0x736F6C6343 STOP ADDMOD SMOD STOP CALLER "
				},
				"gasEstimates": {
					"creation": {
						"codeDepositCost": "525800",
						"executionCost": "5568",
						"totalCost": "531368"
					},
					"external": {
						"addPlayer(string,uint256,string)": "infinite",
						"countPlayer()": "2429",
						"getPlayerLevel(address)": "2956",
						"players(address)": "infinite"
					}
				},
				"methodIdentifiers": {
					"addPlayer(string,uint256,string)": "aab48c52",
					"countPlayer()": "aaa006b2",
					"getPlayerLevel(address)": "34b735a1",
					"players(address)": "e2eb41ff"
				}
			},
			"storageLayout": {
				"storage": [
					{
						"astId": 4,
						"contract": "game.sol:Game",
						"label": "countPlayer",
						"offset": 0,
						"slot": "0",
						"type": "t_uint256"
					},
					{
						"astId": 9,
						"contract": "game.sol:Game",
						"label": "players",
						"offset": 0,
						"slot": "1",
						"type": "t_mapping(t_address,t_struct(Player)25_storage)"
					}
				],
				"types": {
					"t_address": {
						"encoding": "inplace",
						"label": "address",
						"numberOfBytes": "20"
					},
					"t_enum(Level)13": {
						"encoding": "inplace",
						"label": "enum Game.Level",
						"numberOfBytes": "1"
					},
					"t_mapping(t_address,t_struct(Player)25_storage)": {
						"encoding": "mapping",
						"key": "t_address",
						"label": "mapping(address => struct Game.Player)",
						"numberOfBytes": "32",
						"value": "t_struct(Player)25_storage"
					},
					"t_string_storage": {
						"encoding": "bytes",
						"label": "string",
						"numberOfBytes": "32"
					},
					"t_struct(Player)25_storage": {
						"encoding": "inplace",
						"label": "struct Game.Player",
						"members": [
							{
								"astId": 15,
								"contract": "game.sol:Game",
								"label": "addressPlayer",
								"offset": 0,
								"slot": "0",
								"type": "t_address"
							},
							{
								"astId": 17,
								"contract": "game.sol:Game",
								"label": "fullName",
								"offset": 0,
								"slot": "1",
								"type": "t_string_storage"
							},
							{
								"astId": 20,
								"contract": "game.sol:Game",
								"label": "myLevel",
								"offset": 0,
								"slot": "2",
								"type": "t_enum(Level)13"
							},
							{
								"astId": 22,
								"contract": "game.sol:Game",
								"label": "age",
								"offset": 0,
								"slot": "3",
								"type": "t_uint256"
							},
							{
								"astId": 24,
								"contract": "game.sol:Game",
								"label": "sex",
								"offset": 0,
								"slot": "4",
								"type": "t_string_storage"
							}
						],
						"numberOfBytes": "160"
					},
					"t_uint256": {
						"encoding": "inplace",
						"label": "uint256",
						"numberOfBytes": "32"
					}
				}
			},
			"userdoc": {
				"kind": "user",
				"methods": {},
				"version": 1
			}
		}
	}
}